{"abi":[{"type":"function","name":"addSafeSender","inputs":[{"name":"sender","type":"address","internalType":"address"}],"outputs":[],"stateMutability":"nonpayable"},{"type":"function","name":"isInitialized","inputs":[{"name":"smartAccount","type":"address","internalType":"address"}],"outputs":[{"name":"","type":"bool","internalType":"bool"}],"stateMutability":"view"},{"type":"function","name":"isModuleType","inputs":[{"name":"typeId","type":"uint256","internalType":"uint256"}],"outputs":[{"name":"","type":"bool","internalType":"bool"}],"stateMutability":"pure"},{"type":"function","name":"isSafeSender","inputs":[{"name":"sender","type":"address","internalType":"address"},{"name":"smartAccount","type":"address","internalType":"address"}],"outputs":[{"name":"","type":"bool","internalType":"bool"}],"stateMutability":"view"},{"type":"function","name":"isValidSignatureWithSender","inputs":[{"name":"sender","type":"address","internalType":"address"},{"name":"hash","type":"bytes32","internalType":"bytes32"},{"name":"signature","type":"bytes","internalType":"bytes"}],"outputs":[{"name":"sigValidationResult","type":"bytes4","internalType":"bytes4"}],"stateMutability":"view"},{"type":"function","name":"name","inputs":[],"outputs":[{"name":"","type":"string","internalType":"string"}],"stateMutability":"pure"},{"type":"function","name":"onInstall","inputs":[{"name":"data","type":"bytes","internalType":"bytes"}],"outputs":[],"stateMutability":"nonpayable"},{"type":"function","name":"onUninstall","inputs":[{"name":"","type":"bytes","internalType":"bytes"}],"outputs":[],"stateMutability":"nonpayable"},{"type":"function","name":"removeSafeSender","inputs":[{"name":"sender","type":"address","internalType":"address"}],"outputs":[],"stateMutability":"nonpayable"},{"type":"function","name":"smartAccountOwners","inputs":[{"name":"","type":"address","internalType":"address"}],"outputs":[{"name":"","type":"address","internalType":"address"}],"stateMutability":"view"},{"type":"function","name":"supportsNestedTypedDataSign","inputs":[],"outputs":[{"name":"result","type":"bytes32","internalType":"bytes32"}],"stateMutability":"view"},{"type":"function","name":"transferOwnership","inputs":[{"name":"newOwner","type":"address","internalType":"address"}],"outputs":[],"stateMutability":"nonpayable"},{"type":"function","name":"validateSignatureWithData","inputs":[{"name":"hash","type":"bytes32","internalType":"bytes32"},{"name":"sig","type":"bytes","internalType":"bytes"},{"name":"data","type":"bytes","internalType":"bytes"}],"outputs":[{"name":"validSig","type":"bool","internalType":"bool"}],"stateMutability":"pure"},{"type":"function","name":"validateUserOp","inputs":[{"name":"userOp","type":"tuple","internalType":"struct PackedUserOperation","components":[{"name":"sender","type":"address","internalType":"address"},{"name":"nonce","type":"uint256","internalType":"uint256"},{"name":"initCode","type":"bytes","internalType":"bytes"},{"name":"callData","type":"bytes","internalType":"bytes"},{"name":"accountGasLimits","type":"bytes32","internalType":"bytes32"},{"name":"preVerificationGas","type":"uint256","internalType":"uint256"},{"name":"gasFees","type":"bytes32","internalType":"bytes32"},{"name":"paymasterAndData","type":"bytes","internalType":"bytes"},{"name":"signature","type":"bytes","internalType":"bytes"}]},{"name":"userOpHash","type":"bytes32","internalType":"bytes32"}],"outputs":[{"name":"","type":"uint256","internalType":"uint256"}],"stateMutability":"nonpayable"},{"type":"function","name":"version","inputs":[],"outputs":[{"name":"","type":"string","internalType":"string"}],"stateMutability":"pure"},{"type":"error","name":"AlreadyInitialized","inputs":[{"name":"smartAccount","type":"address","internalType":"address"}]},{"type":"error","name":"InvalidDataLength","inputs":[]},{"type":"error","name":"InvalidSignature","inputs":[]},{"type":"error","name":"InvalidTargetAddress","inputs":[{"name":"target","type":"address","internalType":"address"}]},{"type":"error","name":"ModuleAlreadyInitialized","inputs":[]},{"type":"error","name":"NewOwnerIsContract","inputs":[]},{"type":"error","name":"NoOwnerProvided","inputs":[]},{"type":"error","name":"NotInitialized","inputs":[{"name":"smartAccount","type":"address","internalType":"address"}]},{"type":"error","name":"OwnerCannotBeZeroAddress","inputs":[]},{"type":"error","name":"ZeroAddressNotAllowed","inputs":[]}],"bytecode":{"object":"0x6080604052348015600e575f5ffd5b506139a28061001c5f395ff3fe608060405234801561000f575f5ffd5b50600436106100f0575f3560e01c8063940d384011610093578063e824b56811610063578063e824b56814610283578063ecd0596114610296578063f2fde38b146102aa578063f551e2ee146102bd575f5ffd5b8063940d3840146102165780639700320314610229578063d60b347f1461024a578063d620c85a1461025d575f5ffd5b806354fd4d50116100ce57806354fd4d50146101a25780635c81ca68146101db5780636d61fe70146101f05780638a91b0e314610203575f5ffd5b806306fdde03146100f45780630807dbc11461013f5780632e5b63a614610162575b5f5ffd5b60408051808201909152600e81527f4b314d656556616c696461746f7200000000000000000000000000000000000060208201525b6040516101369190612f14565b60405180910390f35b61015261014d366004612f60565b610301565b6040519015158152602001610136565b61018a610170366004612f97565b5f602081905290815260409020546001600160a01b031681565b6040516001600160a01b039091168152602001610136565b60408051808201909152600581527f312e302e300000000000000000000000000000000000000000000000000000006020820152610129565b6101ee6101e9366004612f97565b610317565b005b6101ee6101fe366004612ff0565b610327565b6101ee610211366004612ff0565b61047a565b61015261022436600461302f565b6104af565b61023c6102373660046130a8565b61051d565b604051908152602001610136565b610152610258366004612f97565b61055f565b7fd620c85a0000000000000000000000000000000000000000000000000000000061023c565b6101ee610291366004612f97565b610582565b6101526102a43660046130ef565b60011490565b6101ee6102b8366004612f97565b61058e565b6102d06102cb366004613106565b610629565b6040517fffffffff000000000000000000000000000000000000000000000000000000009091168152602001610136565b5f61030e60018385610647565b90505b92915050565b6103236001338361067d565b5050565b5f819003610361576040517f1f2a381c00000000000000000000000000000000000000000000000000000000815260040160405180910390fd5b335f908152602081905260409020546001600160a01b0316156103b0576040517fe72ce85e00000000000000000000000000000000000000000000000000000000815260040160405180910390fd5b5f6103be601482848661315e565b6103c791613185565b60601c905080610403576040517fc81abf6000000000000000000000000000000000000000000000000000000000815260040160405180910390fd5b803b15610423576040516383e6a1cb60e01b815260040160405180910390fd5b335f908152602081905260409020805473ffffffffffffffffffffffffffffffffffffffff19166001600160a01b038316179055601482111561047557610475610470836014818761315e565b610692565b505050565b335f818152602081905260409020805473ffffffffffffffffffffffffffffffffffffffff19169055610323906001906106f9565b5f601482146104ea576040517fdfe9309000000000000000000000000000000000000000000000000000000000815260040160405180910390fd5b5f6104f8601482858761315e565b61050191613185565b60601c905061051281888888610703565b979650505050505050565b5f80808061052e6020870187612f97565b6001600160a01b03908116825260208201929092526040015f2054169050610557848483610744565b949350505050565b6001600160a01b038082165f908152602081905260408120549091161515610311565b610323600133836108b0565b6001600160a01b0381166105ce576040517f8579befe00000000000000000000000000000000000000000000000000000000815260040160405180910390fd5b803b156105ee576040516383e6a1cb60e01b815260040160405180910390fd5b335f908152602081905260409020805473ffffffffffffffffffffffffffffffffffffffff19166001600160a01b0392909216919091179055565b5f61063e858561063986866108c5565b6108f5565b95945050505050565b6001600160a01b038181165f908152600185016020908152604080832093861683529290529081205415155b90505b9392505050565b5f61067384846001600160a01b0385166109d7565b5f5b61069f6014836131ed565b811015610475576106f03384846106b7856014613200565b906106c3866001613217565b6106ce906014613200565b926106db9392919061315e565b6106e491613185565b6001919060601c61067d565b50600101610694565b6103238282610a5c565b5f61063e858585858080601f0160208091040260200160405190810160405280939291908181526020018383808284375f92019190915250610ab092505050565b5f8061079061075761010087018761322a565b8080601f0160208091040260200160405190810160405280939291908181526020018383808284375f92019190915250610b6092505050565b90505f815160038111156107a6576107a661326d565b036107c2576107ba85826020015185610d7e565b915050610676565b6001815160038111156107d7576107d761326d565b036107eb576107ba85826020015185610e15565b6002815160038111156108005761080061326d565b03610814576107ba85826020015185610ef0565b6003815160038111156108295761082961326d565b0361083d576107ba84826020015185611147565b60405162461bcd60e51b815260206004820152603260248201527f53757065725478456364736156616c696461746f724c69623a3a20696e76616c60448201527f696420757365724f70207369672074797065000000000000000000000000000060648201526084015b60405180910390fd5b5f61067384846001600160a01b038516611168565b818161649261ffff30801c190402818301601f190135036108ee57506040810135016020810190355b9250929050565b5f816109325761773961ffff83190402840361093257507f7739000100000000000000000000000000000000000000000000000000000000610557565b60208301357f7fffffffffffffffffffffffffffffff5d576e7357a4501ddfe92f46681b20a0811115610991576040517f8baa579f00000000000000000000000000000000000000000000000000000000815260040160405180910390fd5b5f61099e87878787611246565b806109af57506109af868686611260565b806109c057506109c08686866114fe565b155f03631626ba7e1760e01b979650505050505050565b5f81815260018401602090815260408083206001600160a01b0386168452909152812054610a55575f838152602085815260409091208054600101918202810184905555610a258484611569565b5f8381526001808701602090815260408084206001600160a01b0389168552909152909120919091559050610676565b505f610676565b5f610a67838361157c565b905060015b818111610aaa575f610a888585610a838587613281565b611587565b9050610a95858583611168565b50508080610aa290613294565b915050610a6c565b50505050565b5f5f610abb83610b60565b90505f81516003811115610ad157610ad161326d565b03610ae5576107ba85858360200151611593565b600181516003811115610afa57610afa61326d565b03610b0e576107ba858583602001516115f2565b600281516003811115610b2357610b2361326d565b03610b37576107ba8585836020015161169a565b600381516003811115610b4c57610b4c61326d565b0361083d576107ba858583602001516117ec565b604080518082019091525f8152606060208201525f610b8f6001808551610b879190613281565b8591906117f8565b90505f60ff16835f81518110610ba757610ba76132ac565b016020015160f81c03610bd05760408051808201909152805f5b81526020019190915292915050565b600160ff16835f81518110610be757610be76132ac565b016020015160f81c03610c065760408051808201909152806001610bc1565b600260ff16835f81518110610c1d57610c1d6132ac565b016020015160f81c03610c3c5760408051808201909152806002610bc1565b60ff8016835f81518110610c5257610c526132ac565b016020015160f81c03610c715760408051808201909152806003610bc1565b60405162461bcd60e51b81526020600482015260b360248201527f53757065725478456364736156616c696461746f724c69623a3a20696e76616c60448201527f69642073696720747970652e204578706563746564207072656669782030783060648201527f3020666f72206f66662d636861696e2c203078303120666f72206f6e2d63686160848201527f696e206f72203078303220666f72206572633230207065726d6974206974782060a48201527f68617368207369676e6174757265206f72203078666620666f72206e6f726d6160c48201527f6c20757365724f70207369676e61747572652e0000000000000000000000000060e4820152610104016108a7565b50919050565b5f5f5f5f5f5f87806020019051810190610d989190613443565b945094509450945094505f610dbe8a8565ffffffffffff168565ffffffffffff1661191f565b9050610dcb888784611986565b610dde5760019650505050505050610676565b610de9858783611a0a565b610dfc5760019650505050505050610676565b610e075f8486611a1f565b9a9950505050505050505050565b5f5f610e2084611a55565b90505f610e47868360e0015165ffffffffffff1684610100015165ffffffffffff1661191f565b90505f826040015183606001518460200151604051602001610e8993929190928352602083019190915260f81b6001600160f81b031916604082015260410190565b6040516020818303038152906040529050610ea985846080015183611986565b610eb95760019350505050610676565b610ecc8360c001518460a0015184611a0a565b610edc5760019350505050610676565b6105125f8461010001518560e00151611a1f565b5f5f83806020019051810190610f0691906134ec565b90505f610f2e8683610140015165ffffffffffff1684610160015165ffffffffffff1661191f565b90505f610f3f836101800151611cae565b6101008401516040808601516020808801516080808a015160c0808c01518751958601969096526001600160a01b03808f169786019790975295909216606084015282015260a0810191909152908101829052919250905f9060e0016040516020818303038152906040528051906020012090505f610fc2828760600151611d08565b6101a08701516101c08801516040805160208101939093528201526001600160f81b031960f887901b1660608201529091505f906061016040516020818303038152906040529050611015898383611986565b611029576001975050505050505050610676565b61103e87610120015188610100015188611a0a565b611052576001975050505050505050610676565b8660e00151156111235786516001600160a01b031663d505accf8a61107a60208f018f612f97565b60808b01516101a08c01516101c08d015160405160e087901b7fffffffff000000000000000000000000000000000000000000000000000000001681526001600160a01b03958616600482015294909316602485015260448401919091526064830189905260ff8a16608484015260a483015260c482015260e4015f604051808303815f87803b15801561110c575f5ffd5b505af115801561111e573d5f5f3e3d5ffd5b505050505b6111385f886101600151896101400151611a1f565b9b9a5050505050505050505050565b5f611153828585611986565b61115f57506001610676565b505f9392505050565b5f81815260018401602090815260408083206001600160a01b0386168452909152812054801561123d575f61119e600183613281565b90505f60016111ad8888611569565b6111b79190613281565b9050808214611201575f6111cc888884611d47565b90506111da88888584611d53565b5f90815260018801602090815260408083206001600160a01b038a16845290915290208390555b61120b8787611d5f565b5050505f8281526001808601602090815260408084206001600160a01b03881685529091528220919091559050610676565b5f915050610676565b5f61125085611d69565b156105575761063e848484611da9565b5f308015611319575f5f5f5f5f336001600160a01b03166384b0196e6040518163ffffffff1660e01b81526004015f60405180830381865afa1580156112a8573d5f5f3e3d5ffd5b505050506040513d5f823e601f3d908101601f191682016040526112cf9190810190613614565b506040805186516020978801208183015285519590960194909420606086015260808501929092526001600160a01b031660a084015260c083015260e08201905296505050505050505b6040516002840385013560f01c8060420180860387016119015f52604081602037821582881017896042601e20181715611384575f94507f983e65e5148e570cd828ead231ee759a8d7958721a768f93bc4483ba005c32de85528860205260408520985050506114dd565b7f5479706564446174615369676e280000000000000000000000000000000000008452600e84018360408301823760288185019081525f1901515f1a6029146113fd575f6001858301035b6001820191506029828203515f1a14868310116113cf57508085039450808560408501018337602881830153505b6f07fffffe00000000000001000000000081515f1a1c5b602882515f1a1461143a57806512010000000183515f1a1c179050600182019150611414565b7f20636f6e74656e74732c737472696e67206e616d652c737472696e670000000082527f2076657273696f6e2c75696e7432353620636861696e49642c61646472657373601c8301527f20766572696679696e67436f6e74726163742c627974657333322073616c7429603c830152605c820191508460408401833760408388379084018590038520865260e08620604052600116604201601e20985050909403935b50604052806114f3576114f03386611dcd565b94505b61063e858585611da9565b5f3a610676573a3a526d378edcd5b5b0a24f5342d8c1048560203a3a388461fffffa503a5161155d57604051631626ba7e3a528160205260408052454561ffff0117805a10838814171561154e57fe5b3a3a6064601c3085fa50506040525b50610673848484611da9565b5f8181526020839052604081205461030e565b5f61030e8383611569565b5f610673848484611d47565b5f5f5f5f848060200190518101906115ab91906136e7565b9250925092506115bc878483611986565b6115cb575f9350505050610676565b6115d6828488611a0a565b6115e5575f9350505050610676565b5060019695505050505050565b5f5f6115fd83611a55565b90505f81604001518260600151836020015160405160200161163f93929190928352602083019190915260f81b6001600160f81b031916604082015260410190565b604051602081830303815290604052905061165f86836080015183611986565b61166d575f92505050610676565b6116808260c001518360a0015187611a0a565b61168e575f92505050610676565b50600195945050505050565b5f5f828060200190518101906116b091906134ec565b90505f6116c1826101800151611cae565b90505f8261010001515f1c90505f836040015188856020015186608001518760c0015186604051602001611729969594939291909586526001600160a01b0394851660208701529290931660408501526060840152608083019190915260a082015260c00190565b6040516020818303038152906040528051906020012090505f611750828660600151611d08565b6101a08601516101c08701516040805160208101939093528201526001600160f81b031960f887901b1660608201529091505f9060610160405160208183030381529060405290506117a38a8383611986565b6117b5575f9650505050505050610676565b6117ca8661012001518761010001518b611a0a565b6117dc575f9650505050505050610676565b5060019998505050505050505050565b5f610673848484611986565b60608161180681601f613217565b10156118545760405162461bcd60e51b815260206004820152600e60248201527f736c6963655f6f766572666c6f7700000000000000000000000000000000000060448201526064016108a7565b61185e8284613217565b845110156118ae5760405162461bcd60e51b815260206004820152601160248201527f736c6963655f6f75744f66426f756e647300000000000000000000000000000060448201526064016108a7565b6060821580156118cc5760405191505f825260208201604052611916565b6040519150601f8416801560200281840101858101878315602002848b0101015b818310156119055780518352602092830192016118ed565b5050858452601f01601f1916604052505b50949350505050565b5f61192984611eb8565b60408051602081019290925281018490526060810183905246608082015260a00160408051601f19818403018152828252805160209182012090830152016040516020818303038152906040528051906020012090509392505050565b5f836001600160a01b031661199b8484611ed0565b6001600160a01b0316036119b157506001610676565b7f19457468657265756d205369676e6564204d6573736167653a0a3332000000005f908152601c849052603c90206001600160a01b038516906119f49084611ed0565b6001600160a01b03160361115f57506001610676565b5f82611a168584611ee7565b14949350505050565b5f60d08265ffffffffffff16901b60a08465ffffffffffff16901b85611a45575f611a48565b60015b60ff161717949350505050565b60408051610120810182525f8082526020820181905291810182905260608082018390526080820183905260a0820183905260c082015260e081018290526101008101919091525f825f81518110611aaf57611aaf6132ac565b016020015160f81c90505f611ae1611ac960066002613755565b60ff168551611ad89190613281565b859060066117f8565b611aea90613771565b60d01c90505f611b0d600660ff168651611b049190613281565b869060066117f8565b611b1690613771565b60d01c90505f856001611b2b60066002613755565b60ff168851611b3a9190613281565b611b449190613281565b81518110611b5457611b546132ac565b016020015160f81c90505f611b6b60066002613755565b60ff16602060ff168360ff16611b819190613200565b611b8c906001613217565b611b969190613217565b90505f611bbe600180848b51611bac9190613281565b611bb69190613281565b8a91906117f8565b90505f611bf1826040805180820182525f8082526020918201528151808301909252825182529182019181019190915290565b90505f611bfd82611f29565b90505f611c0a898361202f565b90506040518061012001604052808a60ff168152602001611c2d835f0151611cae565b60ff1681526020018260200151815260200182604001518152602001611c5e8b87611c57886121aa565b86516121b5565b8152602001611c70836060015161234e565b8152602001611c7f8d896123ee565b81526020018965ffffffffffff1681526020018865ffffffffffff168152509950505050505050505050919050565b5f60258210611cec576023611cc2836124e2565b611ccd906002613200565b611cd79084613281565b611ce19190613281565b61031190601b613217565b60018211611cff5761031182601b613217565b5090565b919050565b6040517f190100000000000000000000000000000000000000000000000000000000000081526002810182905260228101839052604290205f9061030e565b5f6106738484846124fa565b610aaa84848484612511565b6103238282612529565b5f6dd9ecebf3c23529de49815dac1c4c6001600160a01b0383161480611d9757506001600160a01b03821633145b80610311575061031160013384610647565b335f90815260208190526040812054610673906001600160a01b0316858585610703565b5f5f5f5f5f866001600160a01b03166384b0196e6040518163ffffffff1660e01b81526004015f60405180830381865afa158015611e0d573d5f5f3e3d5ffd5b505050506040513d5f823e601f3d908101601f19168201604052611e349190810190613614565b50509450945094509450506040517f8b73c3c69bb8fe3d512ecc4cf759cc79239f7b179b0ffacaa9a75d522b39400f815284516020860120602082015283516020850120604082015282606082015281608082015260a081209550506719010000000000005f5284601a5285603a52604260182094505f603a525050505092915050565b5f611ec282612565565b805190602001209050919050565b5f80611edc848461261a565b509095945050505050565b5f81815b8451811015611f2157611f1782868381518110611f0a57611f0a6132ac565b6020026020010151612663565b9150600101611eeb565b509392505050565b6060611f348261268f565b611f3c575f5ffd5b5f611f46836126c6565b90505f8167ffffffffffffffff811115611f6257611f626132c0565b604051908082528060200260200182016040528015611fa657816020015b604080518082019091525f8082526020820152815260200190600190039081611f805790505b5090505f611fb78560200151612749565b8560200151611fc69190613217565b90505f805b8481101561202457611fdc836127c2565b9150604051806040016040528083815260200184815250848281518110612005576120056132ac565b602090810291909101015261201a8284613217565b9250600101611fcb565b509195945050505050565b61205760405180608001604052805f81526020015f81526020015f8152602001606081525090565b5f80808060ff871661207757506005925060069150600790506008612105565b60011960ff88160161209757506007925060099150600a9050600b612105565b60405162461bcd60e51b815260206004820152602860248201527f547856616c696461746f724c69623a3a20756e737570706f727465642065766d60448201527f207478207479706500000000000000000000000000000000000000000000000060648201526084016108a7565b6040518060800160405280612135888660ff1681518110612128576121286132ac565b6020026020010151612865565b8152602001612152888560ff1681518110612128576121286132ac565b5f1b8152602001612171888460ff1681518110612128576121286132ac565b5f1b815260200161219d888760ff1681518110612190576121906132ac565b60200260200101516128af565b9052979650505050505050565b5f5f61055783612921565b5f5f6121c083612963565b516121cc906042613217565b90505f8486516121dc9190613281565b90505f6122038283858a516121f19190613281565b6121fb9190613281565b8991906117f8565b905060011960ff89160161225b578761222a8260405180602001604052805f815250612976565b60405160200161223b9291906137f4565b604051602081830303815290604052805190602001209350505050610557565b60ff88166122e157602585106122c9576122b88161228061227b886124e2565b612963565b6122895f612963565b6122925f612963565b6040516020016122a493929190613812565b604051602081830303815290604052612976565b805190602001209350505050610557565b6122b88160405180602001604052805f815250612976565b60405162461bcd60e51b8152602060048201526024808201527f547856616c696461746f724c69623a3a20756e737570706f727465642074782060448201527f747970650000000000000000000000000000000000000000000000000000000060648201526084016108a7565b5f602060ff16825110156123ca5760405162461bcd60e51b815260206004820152602560248201527f54784465636f6465723a3a2063616c6c44617461206c656e67746820746f6f2060448201527f73686f727400000000000000000000000000000000000000000000000000000060648201526084016108a7565b81516123e5906123dc90602090613281565b839060206117f8565b6103119061382f565b60608160ff1667ffffffffffffffff81111561240c5761240c6132c0565b604051908082528060200260200182016040528015612435578160200160208202803683370190505b5090505f600161244760066002613755565b60ff1685516124569190613281565b6124609190613281565b90505b60ff8316156124db5761248361247a602083613281565b859060206117f8565b61248c9061382f565b82612498600186613852565b60ff16815181106124ab576124ab6132ac565b602002602001018181525050602060ff16816124c79190613281565b9050826124d38161386b565b935050612463565b5092915050565b5f60026124f0602384613281565b61031191906131ed565b5f82815260208490526040812061067390836129d6565b5f838152602085905260409020610aaa9083836129fc565b5f818152602083905260408120805490918190036125475750505050565b61255c82612556600184613281565b5f6129fc565b5f190190555050565b6060813560208301355f61258461257f604087018761322a565b612a25565b90505f61259761257f606088018861322a565b9050608086013560a087013560c08801355f6125b961257f60e08c018c61322a565b604080516001600160a01b039a909a1660208b015289810198909852606089019690965250608087019390935260a086019190915260c085015260e08401526101008084019190915281518084039091018152610120909201905292915050565b5f5f5f8351604103612651576020840151604085015160608601515f1a61264388828585612a37565b95509550955050505061265c565b505081515f91506002905b9250925092565b5f81831061267d575f82815260208490526040902061030e565b5f83815260208390526040902061030e565b80515f9081036126a057505f919050565b602082015180515f1a9060c08210156126bc57505f9392505050565b5060019392505050565b80515f9081036126d757505f919050565b5f5f90505f6126e98460200151612749565b84602001516126f89190613217565b90505f845f0151856020015161270e9190613217565b90505b8082101561274057612722826127c2565b61272c9083613217565b91508261273881613294565b935050612711565b50909392505050565b80515f90811a608081101561276057505f92915050565b60b881108061277b575060c0811080159061277b575060f881105b156127895750600192915050565b60c08110156127b65761279e600160b8613852565b6127ab9060ff1682613281565b610676906001613217565b61279e600160f8613852565b80515f908190811a60808110156127dc57600191506124db565b60b8811015612802576127f0608082613281565b6127fb906001613217565b91506124db565b60c081101561282f5760b78103600185019450806020036101000a855104600182018101935050506124db565b60f8811015612843576127f060c082613281565b60019390930151602084900360f7016101000a900490920160f5190192915050565b80515f901580159061287957508151602110155b612881575f5ffd5b5f5f61288c84612921565b8151919350915060208210156105575760208290036101000a9004949350505050565b80516060906128bc575f5ffd5b5f5f6128c784612921565b915091505f8167ffffffffffffffff8111156128e5576128e56132c0565b6040519080825280601f01601f19166020018201604052801561290f576020820181803683370190505b50905060208101611916848285612aff565b5f5f5f6129318460200151612749565b90505f8185602001516129449190613217565b90505f82865f01516129569190613281565b9196919550909350505050565b606061031161297183612b7f565b612c97565b60605f838360405160200161298c929190613886565b60408051601f1981840301815291905280519091506129ac9060c0612ce6565b816040516020016129be929190613886565b60405160208183030381529060405291505092915050565b5f825482106129f057638277484f5f52816020526024601cfd5b50600101602002015490565b82548210612a1557638277484f5f52816020526024601cfd5b8060018301602002840155505050565b5f604051828085833790209392505050565b5f80807f7fffffffffffffffffffffffffffffff5d576e7357a4501ddfe92f46681b20a0841115612a7057505f91506003905082612af5565b604080515f808252602082018084528a905260ff891692820192909252606081018790526080810186905260019060a0016020604051602081039080840390855afa158015612ac1573d5f5f3e3d5ffd5b5050604051601f1901519150506001600160a01b038116612aec57505f925060019150829050612af5565b92505f91508190505b9450945094915050565b805f03612b0b57505050565b60208110612b435782518252612b22602084613217565b9250612b2f602083613217565b9150612b3c602082613281565b9050612b0b565b8015610475575f6001612b57836020613281565b612b6390610100613977565b612b6d9190613281565b84518451821691191617835250505050565b6040805160208082528183019092526060915f91906020820181803683375050506020810184905290505f5b6020811015612be357818181518110612bc657612bc66132ac565b01602001516001600160f81b0319165f03612be357600101612bab565b5f612bef826020613281565b67ffffffffffffffff811115612c0757612c076132c0565b6040519080825280601f01601f191660200182016040528015612c31576020820181803683370190505b5090505f5b8151811015611916578383612c4a81613294565b945081518110612c5c57612c5c6132ac565b602001015160f81c60f81b828281518110612c7957612c796132ac565b60200101906001600160f81b03191690815f1a905350600101612c36565b60608082516001148015612cc457506080835f81518110612cba57612cba6132ac565b016020015160f81c105b15612cd0575081610311565b61030e83612ce085516080612ce6565b90612e97565b6060806038841015612d4e5760408051600180825281830190925290602082018180368337019050509050612d1b8385613217565b601f1a60f81b815f81518110612d3357612d336132ac565b60200101906001600160f81b03191690815f1a90535061030e565b5f60015b612d5c81876131ed565b15612d825781612d6b81613294565b9250612d7b905061010082613200565b9050612d52565b612d8d826001613217565b67ffffffffffffffff811115612da557612da56132c0565b6040519080825280601f01601f191660200182016040528015612dcf576020820181803683370190505b509250612ddc8583613217565b612de7906037613217565b601f1a60f81b835f81518110612dff57612dff6132ac565b60200101906001600160f81b03191690815f1a905350600190505b818111612e8e57610100612e2e8284613281565b612e3a90610100613977565b612e4490886131ed565b612e4e9190613982565b601f1a60f81b838281518110612e6657612e666132ac565b60200101906001600160f81b03191690815f1a90535080612e8681613294565b915050612e1a565b50509392505050565b6060806040519050835180825260208201818101602087015b81831015612ec8578051835260209283019201612eb0565b50855184518101855292509050808201602086015b81831015612ef5578051835260209283019201612edd565b508651929092011591909101601f01601f191660405250905092915050565b602081525f82518060208401528060208501604085015e5f604082850101526040601f19601f83011684010191505092915050565b6001600160a01b0381168114612f5d575f5ffd5b50565b5f5f60408385031215612f71575f5ffd5b8235612f7c81612f49565b91506020830135612f8c81612f49565b809150509250929050565b5f60208284031215612fa7575f5ffd5b813561030e81612f49565b5f5f83601f840112612fc2575f5ffd5b50813567ffffffffffffffff811115612fd9575f5ffd5b6020830191508360208285010111156108ee575f5ffd5b5f5f60208385031215613001575f5ffd5b823567ffffffffffffffff811115613017575f5ffd5b61302385828601612fb2565b90969095509350505050565b5f5f5f5f5f60608688031215613043575f5ffd5b85359450602086013567ffffffffffffffff811115613060575f5ffd5b61306c88828901612fb2565b909550935050604086013567ffffffffffffffff81111561308b575f5ffd5b61309788828901612fb2565b969995985093965092949392505050565b5f5f604083850312156130b9575f5ffd5b823567ffffffffffffffff8111156130cf575f5ffd5b830161012081860312156130e1575f5ffd5b946020939093013593505050565b5f602082840312156130ff575f5ffd5b5035919050565b5f5f5f5f60608587031215613119575f5ffd5b843561312481612f49565b935060208501359250604085013567ffffffffffffffff811115613146575f5ffd5b61315287828801612fb2565b95989497509550505050565b5f5f8585111561316c575f5ffd5b83861115613178575f5ffd5b5050820193919092039150565b80356bffffffffffffffffffffffff1981169060148410156124db576bffffffffffffffffffffffff1960149490940360031b84901b1690921692915050565b634e487b7160e01b5f52601260045260245ffd5b634e487b7160e01b5f52601160045260245ffd5b5f826131fb576131fb6131c5565b500490565b8082028115828204841417610311576103116131d9565b80820180821115610311576103116131d9565b5f5f8335601e1984360301811261323f575f5ffd5b83018035915067ffffffffffffffff821115613259575f5ffd5b6020019150368190038213156108ee575f5ffd5b634e487b7160e01b5f52602160045260245ffd5b81810381811115610311576103116131d9565b5f600182016132a5576132a56131d9565b5060010190565b634e487b7160e01b5f52603260045260245ffd5b634e487b7160e01b5f52604160045260245ffd5b6040516101e0810167ffffffffffffffff811182821017156132f8576132f86132c0565b60405290565b604051601f8201601f1916810167ffffffffffffffff81118282101715613327576133276132c0565b604052919050565b5f67ffffffffffffffff821115613348576133486132c0565b5060051b60200190565b5f82601f830112613361575f5ffd5b815161337461336f8261332f565b6132fe565b8082825260208201915060208360051b860101925085831115613395575f5ffd5b602085015b838110156133b257805183526020928301920161339a565b5095945050505050565b805165ffffffffffff81168114611d03575f5ffd5b5f82601f8301126133e0575f5ffd5b8151602083015f5f67ffffffffffffffff841115613400576134006132c0565b50601f8301601f1916602001613415816132fe565b915050828152858383011115613429575f5ffd5b8282602083015e5f92810160200192909252509392505050565b5f5f5f5f5f60a08688031215613457575f5ffd5b8551602087015190955067ffffffffffffffff811115613475575f5ffd5b61348188828901613352565b945050613490604087016133bc565b925061349e606087016133bc565b9150608086015167ffffffffffffffff8111156134b9575f5ffd5b6134c5888289016133d1565b9150509295509295909350565b8051611d0381612f49565b80518015158114611d03575f5ffd5b5f602082840312156134fc575f5ffd5b815167ffffffffffffffff811115613512575f5ffd5b82016101e08185031215613524575f5ffd5b61352c6132d4565b613535826134d2565b8152613543602083016134d2565b602082015260408281015190820152606080830151908201526080808301519082015260a0808301519082015260c0808301519082015261358660e083016134dd565b60e0820152610100828101519082015261012082015167ffffffffffffffff8111156135b0575f5ffd5b6135bc86828501613352565b610120830152506135d061014083016133bc565b6101408201526135e361016083016133bc565b61016082015261018082810151908201526101a080830151908201526101c091820151918101919091529392505050565b5f5f5f5f5f5f5f60e0888a03121561362a575f5ffd5b87516001600160f81b031981168114613641575f5ffd5b602089015190975067ffffffffffffffff81111561365d575f5ffd5b6136698a828b016133d1565b965050604088015167ffffffffffffffff811115613685575f5ffd5b6136918a828b016133d1565b60608a015190965094506136a99050608089016134d2565b60a089015160c08a0151919450925067ffffffffffffffff8111156136cc575f5ffd5b6136d88a828b01613352565b91505092959891949750929550565b5f5f5f606084860312156136f9575f5ffd5b8351602085015190935067ffffffffffffffff811115613717575f5ffd5b61372386828701613352565b925050604084015167ffffffffffffffff81111561373f575f5ffd5b61374b868287016133d1565b9150509250925092565b60ff81811683821602908116908181146124db576124db6131d9565b805160208201517fffffffffffff00000000000000000000000000000000000000000000000000008116919060068210156137d6577fffffffffffff0000000000000000000000000000000000000000000000000000808360060360031b1b82161692505b5050919050565b5f81518060208401855e5f93019283525090919050565b6001600160f81b03198360f81b1681525f61067360018301846137dd565b5f61063e61382961382384886137dd565b866137dd565b846137dd565b80516020808301519190811015610d78575f1960209190910360031b1b16919050565b60ff8281168282160390811115610311576103116131d9565b5f60ff82168061387d5761387d6131d9565b5f190192915050565b5f61067361382983866137dd565b6001815b60018411156138cf578085048111156138b3576138b36131d9565b60018416156138c157908102905b60019390931c928002613898565b935093915050565b5f826138e557506001610311565b816138f157505f610311565b816001811461390757600281146139115761392d565b6001915050610311565b60ff841115613922576139226131d9565b50506001821b610311565b5060208310610133831016604e8410600b8410161715613950575081810a610311565b61395c5f198484613894565b805f190482111561396f5761396f6131d9565b029392505050565b5f61030e83836138d7565b5f82613990576139906131c5565b50069056fea164736f6c634300081b000a","linkReferences":{}},"methodIdentifiers":{"addSafeSender(address)":"5c81ca68","isInitialized(address)":"d60b347f","isModuleType(uint256)":"ecd05961","isSafeSender(address,address)":"0807dbc1","isValidSignatureWithSender(address,bytes32,bytes)":"f551e2ee","name()":"06fdde03","onInstall(bytes)":"6d61fe70","onUninstall(bytes)":"8a91b0e3","removeSafeSender(address)":"e824b568","smartAccountOwners(address)":"2e5b63a6","supportsNestedTypedDataSign()":"d620c85a","transferOwnership(address)":"f2fde38b","validateSignatureWithData(bytes32,bytes,bytes)":"940d3840","validateUserOp((address,uint256,bytes,bytes,bytes32,uint256,bytes32,bytes,bytes),bytes32)":"97003203","version()":"54fd4d50"},"id":18}