{"abi":[{"type":"function","name":"addSafeSender","inputs":[{"name":"sender","type":"address","internalType":"address"}],"outputs":[],"stateMutability":"nonpayable"},{"type":"function","name":"getOwner","inputs":[{"name":"smartAccount","type":"address","internalType":"address"}],"outputs":[{"name":"","type":"address","internalType":"address"}],"stateMutability":"view"},{"type":"function","name":"isInitialized","inputs":[{"name":"smartAccount","type":"address","internalType":"address"}],"outputs":[{"name":"","type":"bool","internalType":"bool"}],"stateMutability":"view"},{"type":"function","name":"isModuleType","inputs":[{"name":"typeId","type":"uint256","internalType":"uint256"}],"outputs":[{"name":"","type":"bool","internalType":"bool"}],"stateMutability":"pure"},{"type":"function","name":"isSafeSender","inputs":[{"name":"sender","type":"address","internalType":"address"},{"name":"smartAccount","type":"address","internalType":"address"}],"outputs":[{"name":"","type":"bool","internalType":"bool"}],"stateMutability":"view"},{"type":"function","name":"isValidSignatureWithSender","inputs":[{"name":"sender","type":"address","internalType":"address"},{"name":"hash","type":"bytes32","internalType":"bytes32"},{"name":"signature","type":"bytes","internalType":"bytes"}],"outputs":[{"name":"sigValidationResult","type":"bytes4","internalType":"bytes4"}],"stateMutability":"view"},{"type":"function","name":"name","inputs":[],"outputs":[{"name":"","type":"string","internalType":"string"}],"stateMutability":"pure"},{"type":"function","name":"onInstall","inputs":[{"name":"data","type":"bytes","internalType":"bytes"}],"outputs":[],"stateMutability":"nonpayable"},{"type":"function","name":"onUninstall","inputs":[{"name":"","type":"bytes","internalType":"bytes"}],"outputs":[],"stateMutability":"nonpayable"},{"type":"function","name":"removeSafeSender","inputs":[{"name":"sender","type":"address","internalType":"address"}],"outputs":[],"stateMutability":"nonpayable"},{"type":"function","name":"smartAccountOwners","inputs":[{"name":"","type":"address","internalType":"address"}],"outputs":[{"name":"","type":"address","internalType":"address"}],"stateMutability":"view"},{"type":"function","name":"supportsNestedTypedDataSign","inputs":[],"outputs":[{"name":"result","type":"bytes32","internalType":"bytes32"}],"stateMutability":"view"},{"type":"function","name":"transferOwnership","inputs":[{"name":"newOwner","type":"address","internalType":"address"}],"outputs":[],"stateMutability":"nonpayable"},{"type":"function","name":"validateSignatureWithData","inputs":[{"name":"hash","type":"bytes32","internalType":"bytes32"},{"name":"sig","type":"bytes","internalType":"bytes"},{"name":"data","type":"bytes","internalType":"bytes"}],"outputs":[{"name":"validSig","type":"bool","internalType":"bool"}],"stateMutability":"view"},{"type":"function","name":"validateUserOp","inputs":[{"name":"userOp","type":"tuple","internalType":"struct PackedUserOperation","components":[{"name":"sender","type":"address","internalType":"address"},{"name":"nonce","type":"uint256","internalType":"uint256"},{"name":"initCode","type":"bytes","internalType":"bytes"},{"name":"callData","type":"bytes","internalType":"bytes"},{"name":"accountGasLimits","type":"bytes32","internalType":"bytes32"},{"name":"preVerificationGas","type":"uint256","internalType":"uint256"},{"name":"gasFees","type":"bytes32","internalType":"bytes32"},{"name":"paymasterAndData","type":"bytes","internalType":"bytes"},{"name":"signature","type":"bytes","internalType":"bytes"}]},{"name":"userOpHash","type":"bytes32","internalType":"bytes32"}],"outputs":[{"name":"","type":"uint256","internalType":"uint256"}],"stateMutability":"nonpayable"},{"type":"function","name":"version","inputs":[],"outputs":[{"name":"","type":"string","internalType":"string"}],"stateMutability":"pure"},{"type":"error","name":"AlreadyInitialized","inputs":[{"name":"smartAccount","type":"address","internalType":"address"}]},{"type":"error","name":"InvalidDataLength","inputs":[]},{"type":"error","name":"InvalidSignature","inputs":[]},{"type":"error","name":"InvalidTargetAddress","inputs":[{"name":"target","type":"address","internalType":"address"}]},{"type":"error","name":"ModuleAlreadyInitialized","inputs":[]},{"type":"error","name":"NewOwnerIsContract","inputs":[]},{"type":"error","name":"NoOwnerProvided","inputs":[]},{"type":"error","name":"NotInitialized","inputs":[{"name":"smartAccount","type":"address","internalType":"address"}]},{"type":"error","name":"OwnerCannotBeZeroAddress","inputs":[]},{"type":"error","name":"PermitFailed","inputs":[]},{"type":"error","name":"SafeSendersLengthInvalid","inputs":[]},{"type":"error","name":"ZeroAddressNotAllowed","inputs":[]}],"bytecode":{"object":"0x608080604052346015576137fe908161001a8239f35b5f80fdfe60806040526004361015610011575f80fd5b5f3560e01c806306fdde03146101145780630807dbc11461010f5780632e5b63a61461010a57806354fd4d50146101055780635c81ca68146101005780636d61fe70146100fb5780638a91b0e3146100f6578063940d3840146100f157806397003203146100ec578063d60b347f146100e7578063d620c85a146100e2578063e824b568146100dd578063ecd05961146100d8578063f2fde38b146100d3578063f551e2ee146100ce5763fa544161146100c9575f80fd5b610813565b6107b3565b61071d565b6106e5565b6106b6565b61067c565b61062e565b6105e2565b610531565b610487565b610356565b6102c8565b610271565b61022d565b6101ca565b610151565b5f91031261012357565b5f80fd5b602060409281835280519182918282860152018484015e5f828201840152601f01601f1916010190565b34610123575f366003190112610123576101a8604051610172604082610880565b600e81527f4b314d656556616c696461746f72000000000000000000000000000000000000602082015260405191829182610127565b0390f35b6001600160a01b0381160361012357565b35906101c8826101ac565b565b346101235760403660031901126101235760206102226004356101ec816101ac565b6001600160a01b0360243591610201836101ac565b165f526002835260405f20906001600160a01b03165f5260205260405f2090565b541515604051908152f35b34610123576020366003190112610123576001600160a01b03600435610252816101ac565b165f525f60205260206001600160a01b0360405f205416604051908152f35b34610123575f366003190112610123576101a8604051610292604082610880565b600581527f312e302e31000000000000000000000000000000000000000000000000000000602082015260405191829182610127565b34610123576020366003190112610123576102f76001600160a01b036004356102f0816101ac565b1633611771565b005b9181601f840112156101235782359167ffffffffffffffff8311610123576020838186019501011161012357565b6020600319820112610123576004359067ffffffffffffffff821161012357610352916004016102f9565b9091565b346101235761036436610327565b90811561045f57610391336001600160a01b03165f525f6020526001600160a01b0360405f205416151590565b6104375781601411610123576104196103b46103ae60148461099b565b60601c90565b6103c86001600160a01b03821615156109db565b6103d7813b15610a0a565b1590565b6103f1336001600160a01b03165f525f60205260405f2090565b906001600160a01b031673ffffffffffffffffffffffffffffffffffffffff19825416179055565b6014821161042357005b816102f7926104319261091f565b90610dee565b7fe72ce85e000000000000000000000000000000000000000000000000000000005f5260045ffd5b7f1f2a381c000000000000000000000000000000000000000000000000000000005f5260045ffd5b346101235761049536610327565b5050335f525f60205260405f2073ffffffffffffffffffffffffffffffffffffffff198154169055335f52600160205260405f20546001905b808211156104d857005b8181039181831161052c57335f52600160205260405f20805484101561051b5761050f90600161051594950160051b015433612041565b50611858565b906104ce565b83638277484f5f526020526024601cfd5b610d4a565b346101235760603660031901126101235760043560243567ffffffffffffffff8111610123576105659036906004016102f9565b60443567ffffffffffffffff8111610123576105859036906004016102f9565b601481949294106105ba57601411610123576101a8936105a8933560601c610e80565b60405190151581529081906020820190565b7fdfe93090000000000000000000000000000000000000000000000000000000005f5260045ffd5b346101235760403660031901126101235760043567ffffffffffffffff81116101235761012060031982360301126101235761062660209160243590600401610ae5565b604051908152f35b34610123576020366003190112610123576020610672600435610650816101ac565b6001600160a01b03165f525f6020526001600160a01b0360405f205416151590565b6040519015158152f35b34610123575f3660031901126101235760206040517fd620c85a000000000000000000000000000000000000000000000000000000008152f35b34610123576020366003190112610123576102f76001600160a01b036004356106de816101ac565b1633612041565b3461012357602036600319011261012357602060043560018114908115610712575b506040519015158152f35b60079150145f610707565b346101235760203660031901126101235760043561073a816101ac565b6001600160a01b0381161561078b57806107586102f7923b15610a0a565b335f525f60205260405f20906001600160a01b031673ffffffffffffffffffffffffffffffffffffffff19825416179055565b7f8579befe000000000000000000000000000000000000000000000000000000005f5260045ffd5b34610123576060366003190112610123576004356107d0816101ac565b60443560243567ffffffffffffffff8211610123576020926107f96108019336906004016102f9565b929091610c16565b6001600160e01b031960405191168152f35b3461012357602036600319011261012357602061083a600435610835816101ac565b610d06565b6001600160a01b0360405191168152f35b634e487b7160e01b5f52604160045260245ffd5b6040810190811067ffffffffffffffff82111761087b57604052565b61084b565b90601f8019910116810190811067ffffffffffffffff82111761087b57604052565b604051906101c86101a083610880565b604051906101c861012083610880565b604051906101c860e083610880565b604051906101c8604083610880565b604051906101c8608083610880565b67ffffffffffffffff811161087b57601f01601f191660200190565b6040519061091a602083610880565b5f8252565b909291928360141161012357831161012357601401916013190190565b906004116101235790600490565b909291928360041161012357831161012357600401916003190190565b909291928360011161012357831161012357600101915f190190565b90939293848311610123578411610123578101920390565b356bffffffffffffffffffffffff198116929190601482106109bb575050565b6bffffffffffffffffffffffff1960149290920360031b82901b16169150565b156109e257565b7fc81abf60000000000000000000000000000000000000000000000000000000005f5260045ffd5b15610a1157565b7f83e6a1cb000000000000000000000000000000000000000000000000000000005f5260045ffd5b903590601e1981360301821215610123570180359067ffffffffffffffff82116101235760200191813603831361012357565b919091356001600160e01b031981169260048110610a88575050565b6001600160e01b0319929350829060040360031b1b161690565b35610aac816101ac565b90565b929192610abb826108ef565b91610ac96040519384610880565b829481845281830111610123578281602093845f960137010152565b610100810191610b07610b01610afb8585610a39565b9061093c565b90610a6c565b916001600160e01b0319610b1d61083583610aa2565b9316620bbf7760e91b8103610b4b5750610b3d610aac94610b4492610a39565b809161094a565b5090611505565b63177eee0160e01b8103610b705750610b3d610aac94610b6a92610a39565b9161144b565b630bbf770160e11b03610b9357610b3d610aac94610b8d92610a39565b916110ea565b610ba3610aac94610baa92610a39565b3691610aaf565b90610f21565b919091357fffffff000000000000000000000000000000000000000000000000000000000081169260038110610be4575050565b7fffffff0000000000000000000000000000000000000000000000000000000000929350829060030360031b1b161690565b90918360031161012357620bbf7760e91b7fffffff0000000000000000000000000000000000000000000000000000000000610c53600384610bb0565b1614610c6e57610aac93610c66916115ad565b9290916115df565b919050610cc9610cd193610c8133610d06565b60408051602081019586523360601b6bffffffffffffffffffffffff191691810191909152909390610cc081605481015b03601f198101835282610880565b519020936115ad565b929091610e80565b15610cfa577f1626ba7e0000000000000000000000000000000000000000000000000000000090565b6001600160e01b031990565b6001600160a01b0381165f525f6020526001600160a01b0360405f20541680155f14610d30575090565b905090565b6001600160a01b03610aac92169060016117f8565b634e487b7160e01b5f52601160045260245ffd5b8115610d68570490565b634e487b7160e01b5f52601260045260245ffd5b908160051b918083046020149015171561052c57565b908160081b91808304610100149015171561052c57565b906001820180921161052c57565b90601b820180921161052c57565b90601f820180921161052c57565b906037820180921161052c57565b9190820180921161052c57565b9060148106610e58575f5b601482048110610e0857505050565b806014029060148204810361052c57610e2081610da9565b8060140290601482040361052c57610e4b6103ae610e45610e5193600196888a610983565b9061099b565b33610d35565b5001610df9565b7f1c6b73d6000000000000000000000000000000000000000000000000000000005f5260045ffd5b919290926001600160e01b0319610e9a610b01848461093c565b16620bbf7760e91b8103610ebf575081610aac9492610eb89261094a565b5091611bd7565b63177eee0160e01b8103610ee6575081610aac949392610ede9261094a565b929091611a68565b630bbf770160e11b03610f0b5781610aac949392610f039261094a565b9290916119b0565b610f1b90610aac94923691610aaf565b91611c2b565b610f2a92611c2b565b15610f33575f90565b600190565b3590811515820361012357565b359065ffffffffffff8216820361012357565b60ff81160361012357565b35906101c882610f58565b67ffffffffffffffff811161087b5760051b60200190565b929190610f9281610f6e565b93610fa06040519586610880565b602085838152019160051b810192831161012357905b828210610fc257505050565b8135815260209182019101610fb6565b9080601f8301121561012357816020610aac93359101610f86565b6101a081360312610123576110006108a2565b9061100a816101bd565b8252611018602082016101bd565b602083015260408101356040830152606081013560608301526080810135608083015261104760a08201610f38565b60a083015260c081013560c083015261106260e08201610f45565b60e08301526110746101008201610f45565b6101008301526110876101208201610f63565b6101208301526101408101356101408301526101608101356101608301526101808101359067ffffffffffffffff8211610123576110c791369101610fd2565b61018082015290565b6040513d5f823e3d90fd5b90816020910312610123575190565b9291506110f990602001610fed565b60e0810191611138611111845165ffffffffffff1690565b61010084019565ffffffffffff8061112f895165ffffffffffff1690565b16921690611c96565b6111428383611cdd565b9261014081018051906111b26103d36101608501978851906111ac61012088019661119e611171895160ff1690565b6040519586936020850191926041936001600160f81b0319928452602084015260f81b1660408201520190565b03601f198101845283610880565b88611c2b565b61143e576111d06103d36101808501519560c0860196875190611da3565b61143e5760a0830151611228575b5050505050506112076111fa610aac935165ffffffffffff1690565b915165ffffffffffff1690565b6001600160d01b031965ffffffffffff60a01b9160d01b169160a01b161790565b61124861123c84516001600160a01b031690565b6001600160a01b031690565b93602084019461125f86516001600160a01b031690565b60608601986112738a519451965160ff1690565b9451905190833b15610123576112f65f96928b9288946040519a8b998a9889977fd505accf000000000000000000000000000000000000000000000000000000008952600489019360c09591989796936001600160a01b0360ff948160e089019c1688521660208701526040860152606085015216608083015260a08201520152565b03925af19081611424575b50611411579160209161133961132b61123c61123c61123c6113869998516001600160a01b031690565b91516001600160a01b031690565b6040517fdd62ed3e0000000000000000000000000000000000000000000000000000000081526001600160a01b039384166004820152921660248301529093849190829081906044820190565b03915afa91821561140c575f926113db575b5051116113b3576112076111fa610aac935b935f80806111de565b7fb78cb0dd000000000000000000000000000000000000000000000000000000005f5260045ffd5b6113fe91925060203d602011611405575b6113f68183610880565b8101906110db565b905f611398565b503d6113ec565b6110d0565b505050506112076111fa610aac936113aa565b806114325f61143893610880565b80610119565b5f611301565b5050505050505050600190565b929161145691611eae565b9060e08201916114bf6103d3611493611475865165ffffffffffff1690565b61010085019765ffffffffffff8061112f8b5165ffffffffffff1690565b936040840151906114b460608601519261119e611171602089015160ff1690565b608085015190611c2b565b6114fc576114db918160a060c06103d394015191015190611da3565b6114f5576112076111fa610aac935165ffffffffffff1690565b5050600190565b50505050600190565b90918235916020840135926040850135946060810135019261155b84359183610f1b61154a8560051b89019765ffffffffffff8c169065ffffffffffff8c1690611c96565b963690604060208201359101610aaf565b156115a25761157793611572916020369201610f86565b611da3565b156114f557610aac91906001600160d01b031965ffffffffffff60a01b9160d01b169160a01b161790565b505050505050600190565b9182828101601f19013561649261ffff30801c190402146115cb5750565b604091935080925001350160208135910191565b929190821561170c575b7f7fffffffffffffffffffffffffffffff5d576e7357a4501ddfe92f46681b20a06020830135116116e4576001600160a01b035f94166dd9ecebf3c23529de49815dac1c4c81149081156116da575b81156116aa575b5061168a575b8315611677575b8315611665575b505050155f03631626ba7e1760e01b90565b61166f935061251e565b5f8080611653565b925061168482828561224d565b9261164c565b92506116a461169833610d06565b84610f1b368686610aaf565b92611645565b90505f5260026020526116d13360405f20906001600160a01b03165f5260205260405f2090565b5415155f61163f565b3381149150611638565b7f8baa579f000000000000000000000000000000000000000000000000000000005f5260045ffd5b61773961ffff8419040281036115e957505050507f773900010000000000000000000000000000000000000000000000000000000090565b60019061176b935f520160205260405f20906001600160a01b03165f5260205260405f2090565b54151590565b815f52600180016020526117998160405f20906001600160a01b03165f5260205260405f2090565b546117f257806117ec915f52600160205260405f20600181540190848260051b82015555805f52600160205260405f2054925f52600260205260405f20906001600160a01b03165f5260205260405f2090565b55600190565b50505f90565b90611804838284611744565b611851575f81815260208390526040902080546001908101600581901b8301869055918290556117ec939091945f520160205260405f20906001600160a01b03165f5260205260405f2090565b5050505f90565b5f19811461052c5760010190565b5f1981019190821161052c57565b60051981019190821161052c57565b60221981019190821161052c57565b601f1981019190821161052c57565b60bf1981019190821161052c57565b607f1981019190821161052c57565b602003906020821161052c57565b9190820391821161052c57565b91909161012081840312610123576118f06108b2565b926118fa826101bd565b84526020820135602085015260408201356040850152606082013560608501526080820135608085015261193060a08301610f63565b60a085015260c082013560c085015260e082013560e085015261010082013567ffffffffffffffff8111610123576119689201610fd2565b610100830152565b35610aac81610f58565b903590601e1981360301821215610123570180359067ffffffffffffffff821161012357602001918160051b3603831361012357565b919250611a2f6103d360208501936119d16119cb36876118da565b826125d1565b61010087013591611a2a60e0890135611a1c6119ef60c08c01611970565b6040519687936020850191926041936001600160f81b0319928452602084015260f81b1660408201520190565b03601f198101855284610880565b611c2b565b6118515760a061157284611a4e6103d395610120611a5b98019061197a565b9390910135923691610f86565b611a6457600190565b5f90565b611a70612658565b50611a7b8484611e5e565b3560f81c92611a8985611866565b611a94908683611e6c565b3560f81c611aa181610d7c565b611aaa90610da9565b611ab490876118cd565b611abf908784610967565b909290611acd368286610aaf565b611ad690612761565b91611ae08361278e565b611aea90896128a9565b93888551611af7906129cd565b9360208701978851986040890191825198611b1190613116565b9190508a5192519351943690611b2692610aaf565b611b2f95612a77565b9460600151611b3d90612bf8565b99611b4792612e56565b96611b506108c2565b60ff918216815291166020820181905260408201859052606082018390526080820193845260a0820198895260c090910196875260408051602081019590955284019190915260f81b6001600160f81b031916606083015260418252611bb7606183610880565b51611bc192611c2b565b1561185157611a5b926103d39251905190611da3565b9180359060208101350192611c0284359183610f1b8460051b88013690604060208201359101610aaf565b15611c2357611c1993611572916020369201610f86565b15611a6457600190565b505050505f90565b906001600160a01b03929183611c41848461269f565b911693168314611c8e576001600160a01b0391611c84916020527b19457468657265756d205369676e6564204d6573736167653a0a33325f52603c60042061269f565b1614610f33575f90565b505050600190565b9160405191602083019384526040830152606082015260608152611cbb608082610880565b5190206040516020810191825260208152611cd7604082610880565b51902090565b90604060429260c0830151611d676001600160a01b03602086015116610cb26060870151936080880151875195869460208601988991926001600160a01b0360a09497969592978160c08601997f6e71edae12b1b97f4d1f60370fef10105fa2faae0126114a169c64845d6126c98752166020860152166040840152606083015260808201520152565b51902091015190604051917f19010000000000000000000000000000000000000000000000000000000000008352600283015260228201522090565b929091905f915b8451831015611dec57611dbd8386612735565b519081811015611ddb575f52602052600160405f205b920191611daa565b905f52602052600160405f20611dd3565b915092501490565b60405190610120820182811067ffffffffffffffff82111761087b576040525f610100838281528260208201528260408201528260608201528260808201528260a0820152606060c08201528260e08201520152565b634e487b7160e01b5f52603260045260245ffd5b9015611e675790565b611e4a565b90821015611e67570190565b919091356001600160d01b031981169260068110611e94575050565b6001600160d01b0319929350829060060360031b1b161690565b611eb6611df4565b50611ec18282611e5e565b3560f81c91600c91611ed383836118cd565b611edc83611874565b611ee7918484610983565b611ef091611e78565b60d01c9180611efe81611874565b90611f0a918185610983565b611f1391611e78565b60d01c93611f2181836118cd565b611f2a90611866565b611f35908385611e6c565b3560f81c90611f4382610d7c565b611f4c90610da9565b90611f5691610de1565b611f6090836118cd565b611f6b908385610967565b9390611f78368683610aaf565b611f8190612761565b91611f8b8361278e565b611f95908a6128a9565b93898551611fa2906129cd565b9760208701948551956040890191825198611fbc90613116565b9190508a5192519351943690611fd192610aaf565b611fda95612a77565b9460600151611fe890612bf8565b95611ff292612d05565b94611ffb6108b2565b60ff909916895260ff16602089015260408801526060870152608086015260a085015260c084015265ffffffffffff1660e083015265ffffffffffff1661010082015290565b90805f5260026020526120688260405f20906001600160a01b03165f5260205260405f2090565b54918215611851575f1983019183831161052c575f828152600160205260409020545f1981019190821161052c575f948484846120c7956117ec98036120dd575b5090506120b89150600161345b565b6002905f5260205260405f2090565b906001600160a01b03165f5260205260405f2090565b6120fd926120b86120f36120c79385600161340e565b809285600161343d565b555f8084816120a9565b81601f820112156101235780519061211e826108ef565b9261212c6040519485610880565b8284526020838301011161012357815f9260208093018386015e8301015290565b51906101c8826101ac565b9080601f8301121561012357815161216f81610f6e565b9261217d6040519485610880565b81845260208085019260051b82010192831161012357602001905b8282106121a55750505090565b8151815260209182019101612198565b9060e0828203126101235781516001600160f81b0319811681036101235792602083015167ffffffffffffffff811161012357826121f4918501612107565b92604081015167ffffffffffffffff81116101235783612215918301612107565b926060820151926122286080840161214d565b9260a08101519260c082015167ffffffffffffffff811161012357610aac9201612158565b9092309330612476575b60405190600119858201013560f01c94600e830196869187810384016041198101976119015f5260408960203789158a604201841017816042601e20181761243657507f5479706564446174615369676e2800000000000000000000000000000000000086526001198101999889818c82378188016028600e8201526029600d8201515f1a036123e0575b506f07fffffe000000000000010000000000919250999899515f1a1c5b88515f1a602881146123205790651201000000016001921c179801976122ff565b50929496999086986040610aac9b83605c96989a957f20636f6e74656e74732c737472696e67206e616d652c737472696e670000000085527f2076657273696f6e2c75696e7432353620636861696e49642c61646472657373601c8601527f20766572696679696e67436f6e74726163742c627974657333322073616c7429603c8601528785013788370103018620835260e08320604052600116604201601e2092604119910301935b604052612d82576123db9033612d93565b612d82565b60015f5b016029600d82840301515f1a148482101115612402576001906123e4565b6028915080806040600e936f07fffffe000000000000010000000000970397886041199101010185378a01015382916122e2565b949699505095505050610aac94505f907f983e65e5148e570cd828ead231ee759a8d7958721a768f93bc4483ba005c32de5f5260205260405f20916123ca565b6040516342580cb760e11b815294505f85600481335afa801561140c575f955f5f905f925f946124e5575b50906001600160a01b039291604051996020815191012060408b01526020815191012060608a015260808901521660a087015260c086015260e08501604052612257565b925050506001600160a01b03965061250f91503d805f833e6125078183610880565b8101906121b5565b509399939450929091906124a1565b92915f933a1561252d57505050565b90919293503a3a5260203a3a386d378edcd5b5b0a24f5342d8c1048561fffffa503a511561256e575b610f1b610aac9361256633610d06565b933691610aaf565b60405192631626ba7e3a526d378edcd5b5b0a24f5342d8c1048560205260408052454561ffff011790815a106d378edcd5b5b0a24f5342d8c104858414176125cf57610aac94610f1b923a906064601c3a923090fa50604052935050612556565bfe5b9060206042926080830151611d676001600160a01b03855116610cb26040870151936060880151604051958694898601988991926001600160a01b0360a09497969592978160c08601997f6e71edae12b1b97f4d1f60370fef10105fa2faae0126114a169c64845d6126c98752166020860152166040840152606083015260808201520152565b6040519060e0820182811067ffffffffffffffff82111761087b57604052606060c0835f81525f60208201525f60408201525f838201525f60808201525f60a08201520152565b9190915f92604051918151806040146126f7576041146126be57505050565b602092945060608201515f1a835260408201516060525b5f5201516040526020604060805f60015afa505f6060523d6060185191604052565b5060209294507f7fffffffffffffffffffffffffffffffffffffffffffffffffffffffffffffff6040830151601b8160ff1c018552166060526126d5565b8051821015611e675760209160051b010190565b604051906127568261085f565b5f6020838281520152565b612769612749565b5060208151916040519261277c8461085f565b835201602082015290565b1561012357565b9061279882612ebf565b15610123576127a682612edf565b916127b083610f6e565b906127be6040519283610880565b838252601f196127cd85610f6e565b015f5b81811061285d575050602081016127f181516127eb81612f40565b90610de1565b945f905b808210612817575050610aac92939461280f9151906118cd565b905114612787565b909561285581612828600193612fab565b906128316108d1565b8281528160208201526128448b8a612735565b5261284f8a89612735565b50610de1565b9601906127f5565b602090612868612749565b828287010152016127d0565b604051906080820182811067ffffffffffffffff82111761087b57604052606080835f81525f60208201525f60408201520152565b60ff906128b4612874565b50168061292e5750600560069061291061290a60079460ff6129026128ec826128fa6128ec826128f26128ec8260089e5b168a612735565b51613029565b9c1687612735565b981684612735565b941690612735565b516130da565b916129196108e0565b93845260208401526040830152606082015290565b60020361296257600760099061291061290a600a9460ff6129026128ec826128fa6128ec826128f26128ec82600b9e6128e5565b60405162461bcd60e51b815260206004820152602860248201527f547856616c696461746f724c69623a3a20756e737570706f727465642065766d60448201527f20747820747970650000000000000000000000000000000000000000000000006064820152608490fd5b60258110612a2e576129de81613104565b7f7fffffffffffffffffffffffffffffffffffffffffffffffffffffffffffffff8116810361052c57612a23612a1e610aac93612a289360011b906118cd565b611883565b610db7565b60ff1690565b60018111612a2857601b810180911161052c5760ff1690565b805191908290602001825e015f815290565b6001906001600160f81b0319610aac949360f81b1681520190612a47565b94612ad19192612ac7612abf612ab3612ad694612aac612aa0612aa5612aa0612adc9c9d6135e8565b613664565b51926135e8565b5190610de1565b612aac612aa08a6135e8565b9185516118cd565b92839185516118cd565b6118cd565b91613246565b9060ff831660028103612b14575050611cd7612b03610cb292612afd61090b565b906132ca565b604051928391602083019586612a59565b91925090612b8e5760258110612b8157612b7791612b72612b3f612b3a612b6c94613104565b613142565b61119e612b4d612aa0613543565b612b6c612b5b612aa0613543565b916040519788956020870190612a47565b90612a47565b6132ca565b6020815191012090565b50612b7790612afd61090b565b60405162461bcd60e51b8152602060048201526024808201527f547856616c696461746f724c69623a3a20756e737570706f727465642074782060448201527f74797065000000000000000000000000000000000000000000000000000000006064820152608490fd5b6020815110612c3a578051601f19810190811161052c57612c18916131e4565b602081519101519060208110612c2c575090565b5f199060200360031b1b1690565b608460405162461bcd60e51b815260206004820152602560248201527f54784465636f6465723a3a2063616c6c44617461206c656e67746820746f6f2060448201527f73686f72740000000000000000000000000000000000000000000000000000006064820152fd5b90612cae82610f6e565b612cbb6040519182610880565b8281528092612ccc601f1991610f6e565b0190602036910137565b60ff16801561052c575f190190565b359060208110612c2c575090565b60ff5f199116019060ff821161052c57565b929190612d1460ff8316612ca4565b93600b19820182811161052c575f19810190811161052c579291925b60ff8316612d3e5750505050565b612d7681612d62612d5c82612d55612d7c96611892565b8988610983565b90612ce5565b612d7060ff6128e588612cf3565b52611892565b92612cd6565b91612d30565b610f1b610aac939261256633610d06565b5f6001600160a01b03916004604051809481936342580cb760e11b8352165afa90811561140c5760a0915f915f5f915f93612e31575b50604051937f8b73c3c69bb8fe3d512ecc4cf759cc79239f7b179b0ffacaa9a75d522b39400f855260208151910120602085015260208151910120604084015260608301526080820152206719010000000000005f52601a52603a526042601820905f603a52565b92505050612e4991503d805f833e6125078183610880565b509394509250905f612dc9565b9291612e6460ff8216612ca4565b935f19830183811161052c575b60ff8316612e7f5750505050565b601f19810181811161052c57612e9d612d5c612eb993838887610983565b612eb260ff612eab87612cf3565b1689612735565b5292612cd6565b91612e71565b805115612eda57602060c0910151515f1a10611a6457600190565b505f90565b805115612eda575f9060208101908151612ef881612f40565b810180911161052c5791519051810180911161052c5791905b828110612f1e5750905090565b612f2781612fab565b810180911161052c57612f3a9091611858565b90612f11565b515f1a6080811015612f5157505f90565b60b881108015612f95575b15612f675750600190565b60c0811015612f8657610aac90612f819060b75b906118cd565b610da9565b610aac90612f819060f7612f7b565b5060c08110158015612f5c575060f88110612f5c565b80515f1a906080821015612fc0575050600190565b60b8821015612fd65750612f81610aac916118b0565b60c0821015612ff95760010151602082900360b7016101000a90040160b5190190565b60f882101561300f5750612f81610aac916118a1565b60010151602082900360f7016101000a90040160f5190190565b8051801515908161305f575b50156101235761304490613116565b90519060208110613053575090565b6020036101000a900490565b6021915011155f613035565b6040805190919061307c8382610880565b60208152918290601f190190369060200137565b604080519091906130a18382610880565b6001815291601f1901366020840137565b906130bc826108ef565b6130c96040519182610880565b8281528092612ccc601f19916108ef565b805115610123576130ed610aac91613116565b6130f9819392936130b2565b9283602001906134b2565b602219810190811161052c5760011c90565b9060208201916131268351612f40565b92519083820180921161052c575192830392831161052c579190565b612aa0610aac916135e8565b1561315557565b606460405162461bcd60e51b815260206004820152600e60248201527f736c6963655f6f766572666c6f770000000000000000000000000000000000006044820152fd5b156131a057565b606460405162461bcd60e51b815260206004820152601160248201527f736c6963655f6f75744f66426f756e64730000000000000000000000000000006044820152fd5b906131ef600161314e565b61320682516131ff602084610de1565b1115613199565b6040519160208084019260408501920101905b80831061323357505060208252601f01601f191660405290565b9091602080918451815201920190613219565b9161325b8161325481610dc5565b101561314e565b61326a83516131ff8385610de1565b80613282575050506040515f81526020810160405290565b60405192601f821692831560051b80858701019484860193010101905b8084106132b75750508252601f01601f191660405290565b909260208091855181520193019061329f565b6132e590610cb2612b6c936040519485936020850190612a47565b805190603882101561333957612b6c91610cb2610aac926001600160f81b031961331860c0613312613090565b95610de1565b60f81b165f1a61332784613525565b535b6040519485936020850190612a47565b916001915f5b6133498483610d5e565b156133665761335a61336091611858565b93610d92565b9261333f565b90925092909261337d61337882610da9565b6130b2565b926001600160f81b031961339a61339560c085610de1565b610dd3565b60f81b165f1a6133a985613525565b5360015b828111156133c857505050612b6c91610cb2610aac92613329565b806001600160f81b03196133f3612a286133ed6133e861340996896118cd565b6134a3565b86610d5e565b60f81b165f1a6134038288613532565b53611858565b6133ad565b905f5260205260405f2090815481101561342d5760010160051b015490565b638277484f5f526020526024601cfd5b905f5260205260405f2090815481101561342d5760010160051b0155565b905f5260205260405f20805490811561349f575f1982019180831161052c57815483101561348e575f9060051b82015555565b82638277484f5f526020526024601cfd5b5050565b601f811161052c576101000a90565b90918015613520575b60208110156134f057806134ce57505050565b6134dd6133e86134e2926118bf565b611866565b905182518216911916179052565b9190805182526020810180911161052c57906020810180911161052c5791601f198101908111156134bb57610d4a565b505050565b805115611e675760200190565b908151811015611e67570160200190565b61354b61306b565b905f60208301525f915b602083106135b7575b61356a613378846118bf565b905f5b82518110156135b05760019061359d61358f61358888611858565b9785613532565b516001600160f81b03191690565b5f1a6135a98286613532565b530161356d565b5090925050565b916135d56135c861358f8386613532565b6001600160f81b03191690565b6135e25760010191613555565b9161355e565b906135f161306b565b9160208301525f915b60208310613640575b61360f613378846118bf565b905f5b82518110156135b05760019061362d61358f61358888611858565b5f1a6136398286613532565b5301613612565b916136516135c861358f8386613532565b61365e57600101916135fa565b91613603565b80516001811490816136fe575b501561367a5790565b6136848151613716565b6040519181518084526020840190840191602083019160208501905b8381106136ee5750508051809286518201875293019260208085019201905b8281106136de5750509251603f91011590910101601f19166040525090565b81518152602091820191016136bf565b81518152602091820191016136a0565b905015611e67576080602082015160f81c105f613671565b603881101561374e576001600160f81b031961373b6080613735613090565b93610de1565b60f81b165f1a61374a82613525565b5390565b6001915f5b61375d8484610d5e565b156137745761335a61376e91611858565b92613753565b90925061378361337882610da9565b916001600160f81b031961379b613395608085610de1565b60f81b165f1a6137aa84613525565b5360015b828111156137bc5750505090565b806001600160f81b03196137dc612a286133ed6133e86137ec96896118cd565b60f81b165f1a6134038287613532565b6137ae56fea164736f6c634300081b000a","linkReferences":{}},"methodIdentifiers":{"addSafeSender(address)":"5c81ca68","getOwner(address)":"fa544161","isInitialized(address)":"d60b347f","isModuleType(uint256)":"ecd05961","isSafeSender(address,address)":"0807dbc1","isValidSignatureWithSender(address,bytes32,bytes)":"f551e2ee","name()":"06fdde03","onInstall(bytes)":"6d61fe70","onUninstall(bytes)":"8a91b0e3","removeSafeSender(address)":"e824b568","smartAccountOwners(address)":"2e5b63a6","supportsNestedTypedDataSign()":"d620c85a","transferOwnership(address)":"f2fde38b","validateSignatureWithData(bytes32,bytes,bytes)":"940d3840","validateUserOp((address,uint256,bytes,bytes,bytes32,uint256,bytes32,bytes,bytes),bytes32)":"97003203","version()":"54fd4d50"},"id":19}