{"abi":[{"type":"function","name":"addSafeSender","inputs":[{"name":"sender","type":"address","internalType":"address"}],"outputs":[],"stateMutability":"nonpayable"},{"type":"function","name":"getOwner","inputs":[{"name":"smartAccount","type":"address","internalType":"address"}],"outputs":[{"name":"","type":"address","internalType":"address"}],"stateMutability":"view"},{"type":"function","name":"isInitialized","inputs":[{"name":"smartAccount","type":"address","internalType":"address"}],"outputs":[{"name":"","type":"bool","internalType":"bool"}],"stateMutability":"view"},{"type":"function","name":"isModuleType","inputs":[{"name":"typeId","type":"uint256","internalType":"uint256"}],"outputs":[{"name":"","type":"bool","internalType":"bool"}],"stateMutability":"pure"},{"type":"function","name":"isSafeSender","inputs":[{"name":"sender","type":"address","internalType":"address"},{"name":"smartAccount","type":"address","internalType":"address"}],"outputs":[{"name":"","type":"bool","internalType":"bool"}],"stateMutability":"view"},{"type":"function","name":"isValidSignatureWithSender","inputs":[{"name":"sender","type":"address","internalType":"address"},{"name":"hash","type":"bytes32","internalType":"bytes32"},{"name":"signature","type":"bytes","internalType":"bytes"}],"outputs":[{"name":"sigValidationResult","type":"bytes4","internalType":"bytes4"}],"stateMutability":"view"},{"type":"function","name":"name","inputs":[],"outputs":[{"name":"","type":"string","internalType":"string"}],"stateMutability":"pure"},{"type":"function","name":"onInstall","inputs":[{"name":"data","type":"bytes","internalType":"bytes"}],"outputs":[],"stateMutability":"nonpayable"},{"type":"function","name":"onUninstall","inputs":[{"name":"","type":"bytes","internalType":"bytes"}],"outputs":[],"stateMutability":"nonpayable"},{"type":"function","name":"removeSafeSender","inputs":[{"name":"sender","type":"address","internalType":"address"}],"outputs":[],"stateMutability":"nonpayable"},{"type":"function","name":"smartAccountOwners","inputs":[{"name":"","type":"address","internalType":"address"}],"outputs":[{"name":"","type":"address","internalType":"address"}],"stateMutability":"view"},{"type":"function","name":"supportsNestedTypedDataSign","inputs":[],"outputs":[{"name":"result","type":"bytes32","internalType":"bytes32"}],"stateMutability":"view"},{"type":"function","name":"transferOwnership","inputs":[{"name":"newOwner","type":"address","internalType":"address"}],"outputs":[],"stateMutability":"nonpayable"},{"type":"function","name":"validateSignatureWithData","inputs":[{"name":"hash","type":"bytes32","internalType":"bytes32"},{"name":"sig","type":"bytes","internalType":"bytes"},{"name":"data","type":"bytes","internalType":"bytes"}],"outputs":[{"name":"validSig","type":"bool","internalType":"bool"}],"stateMutability":"view"},{"type":"function","name":"validateUserOp","inputs":[{"name":"userOp","type":"tuple","internalType":"struct PackedUserOperation","components":[{"name":"sender","type":"address","internalType":"address"},{"name":"nonce","type":"uint256","internalType":"uint256"},{"name":"initCode","type":"bytes","internalType":"bytes"},{"name":"callData","type":"bytes","internalType":"bytes"},{"name":"accountGasLimits","type":"bytes32","internalType":"bytes32"},{"name":"preVerificationGas","type":"uint256","internalType":"uint256"},{"name":"gasFees","type":"bytes32","internalType":"bytes32"},{"name":"paymasterAndData","type":"bytes","internalType":"bytes"},{"name":"signature","type":"bytes","internalType":"bytes"}]},{"name":"userOpHash","type":"bytes32","internalType":"bytes32"}],"outputs":[{"name":"","type":"uint256","internalType":"uint256"}],"stateMutability":"nonpayable"},{"type":"function","name":"version","inputs":[],"outputs":[{"name":"","type":"string","internalType":"string"}],"stateMutability":"pure"},{"type":"error","name":"AlreadyInitialized","inputs":[{"name":"smartAccount","type":"address","internalType":"address"}]},{"type":"error","name":"InvalidDataLength","inputs":[]},{"type":"error","name":"InvalidSignature","inputs":[]},{"type":"error","name":"InvalidTargetAddress","inputs":[{"name":"target","type":"address","internalType":"address"}]},{"type":"error","name":"ModuleAlreadyInitialized","inputs":[]},{"type":"error","name":"NewOwnerIsNotEOA","inputs":[]},{"type":"error","name":"NoOwnerProvided","inputs":[]},{"type":"error","name":"NotInitialized","inputs":[{"name":"smartAccount","type":"address","internalType":"address"}]},{"type":"error","name":"OwnerCannotBeZeroAddress","inputs":[]},{"type":"error","name":"PermitFailed","inputs":[]},{"type":"error","name":"SafeSendersLengthInvalid","inputs":[]},{"type":"error","name":"ZeroAddressNotAllowed","inputs":[]}],"bytecode":{"object":"0x6080806040523460155761386c908161001a8239f35b5f80fdfe60806040526004361015610011575f80fd5b5f3560e01c806306fdde03146101145780630807dbc11461010f5780632e5b63a61461010a57806354fd4d50146101055780635c81ca68146101005780636d61fe70146100fb5780638a91b0e3146100f6578063940d3840146100f157806397003203146100ec578063d60b347f146100e7578063d620c85a146100e2578063e824b568146100dd578063ecd05961146100d8578063f2fde38b146100d3578063f551e2ee146100ce5763fa544161146100c9575f80fd5b61083c565b6107dc565b610744565b61070c565b6106dd565b6106a3565b610655565b610609565b610558565b6104ae565b610356565b6102c8565b610271565b61022d565b6101ca565b610151565b5f91031261012357565b5f80fd5b602060409281835280519182918282860152018484015e5f828201840152601f01601f1916010190565b34610123575f366003190112610123576101a86040516101726040826108a9565b600e81527f4b314d656556616c696461746f72000000000000000000000000000000000000602082015260405191829182610127565b0390f35b6001600160a01b0381160361012357565b35906101c8826101ac565b565b346101235760403660031901126101235760206102226004356101ec816101ac565b6001600160a01b0360243591610201836101ac565b165f526002835260405f20906001600160a01b03165f5260205260405f2090565b541515604051908152f35b34610123576020366003190112610123576001600160a01b03600435610252816101ac565b165f525f60205260206001600160a01b0360405f205416604051908152f35b34610123575f366003190112610123576101a86040516102926040826108a9565b600581527f312e302e32000000000000000000000000000000000000000000000000000000602082015260405191829182610127565b34610123576020366003190112610123576102f76001600160a01b036004356102f0816101ac565b1633611853565b005b9181601f840112156101235782359167ffffffffffffffff8311610123576020838186019501011161012357565b6020600319820112610123576004359067ffffffffffffffff821161012357610352916004016102f9565b9091565b346101235761036436610327565b90811561048657610391336001600160a01b03165f525f6020526001600160a01b0360405f205416151590565b61045e576103b16103ab6103a58484610948565b906109d2565b60601c90565b6103c56001600160a01b0382161515610a12565b6103ce81610e2b565b61043657610418906103f0336001600160a01b03165f525f60205260405f2090565b906001600160a01b031673ffffffffffffffffffffffffffffffffffffffff19825416179055565b6014821161042257005b816102f79261043092610956565b90610ed2565b7fffddfca0000000000000000000000000000000000000000000000000000000005f5260045ffd5b7fe72ce85e000000000000000000000000000000000000000000000000000000005f5260045ffd5b7f1f2a381c000000000000000000000000000000000000000000000000000000005f5260045ffd5b34610123576104bc36610327565b5050335f525f60205260405f2073ffffffffffffffffffffffffffffffffffffffff198154169055335f52600160205260405f20546001905b808211156104ff57005b8181039181831161055357335f52600160205260405f2080548410156105425761053690600161053c94950160051b0154336120af565b5061193a565b906104f5565b83638277484f5f526020526024601cfd5b610aed565b346101235760603660031901126101235760043560243567ffffffffffffffff81116101235761058c9036906004016102f9565b60443567ffffffffffffffff8111610123576105ac9036906004016102f9565b601481949294106105e157601411610123576101a8936105cf933560601c610f5e565b60405190151581529081906020820190565b7fdfe93090000000000000000000000000000000000000000000000000000000005f5260045ffd5b346101235760403660031901126101235760043567ffffffffffffffff81116101235761012060031982360301126101235761064d60209160243590600401610b84565b604051908152f35b34610123576020366003190112610123576020610699600435610677816101ac565b6001600160a01b03165f525f6020526001600160a01b0360405f205416151590565b6040519015158152f35b34610123575f3660031901126101235760206040517fd620c85a000000000000000000000000000000000000000000000000000000008152f35b34610123576020366003190112610123576102f76001600160a01b03600435610705816101ac565b16336120af565b3461012357602036600319011261012357602060043560018114908115610739575b506040519015158152f35b60079150145f61072e565b3461012357602036600319011261012357600435610761816101ac565b6001600160a01b038116156107b45761077981610e2b565b610436576102f790335f525f60205260405f20906001600160a01b031673ffffffffffffffffffffffffffffffffffffffff19825416179055565b7f8579befe000000000000000000000000000000000000000000000000000000005f5260045ffd5b34610123576060366003190112610123576004356107f9816101ac565b60443560243567ffffffffffffffff82116101235760209261082261082a9336906004016102f9565b929091610cf7565b6001600160e01b031960405191168152f35b3461012357602036600319011261012357602061086360043561085e816101ac565b610de7565b6001600160a01b0360405191168152f35b634e487b7160e01b5f52604160045260245ffd5b6040810190811067ffffffffffffffff8211176108a457604052565b610874565b90601f8019910116810190811067ffffffffffffffff8211176108a457604052565b604051906101c86101a0836108a9565b604051906101c8610120836108a9565b604051906101c860e0836108a9565b604051906101c86040836108a9565b604051906101c86080836108a9565b67ffffffffffffffff81116108a457601f01601f191660200190565b604051906109436020836108a9565b5f8252565b906014116101235790601490565b909291928360141161012357831161012357601401916013190190565b906004116101235790600490565b909291928360041161012357831161012357600401916003190190565b909291928360011161012357831161012357600101915f190190565b90939293848311610123578411610123578101920390565b356bffffffffffffffffffffffff198116929190601482106109f2575050565b6bffffffffffffffffffffffff1960149290920360031b82901b16169150565b15610a1957565b7fc81abf60000000000000000000000000000000000000000000000000000000005f5260045ffd5b35610a4b816101ac565b90565b903590601e1981360301821215610123570180359067ffffffffffffffff82116101235760200191813603831361012357565b919091356001600160e01b031981169260048110610a9d575050565b6001600160e01b0319929350829060040360031b1b161690565b929192610ac382610918565b91610ad160405193846108a9565b829481845281830111610123578281602093845f960137010152565b634e487b7160e01b5f52601160045260245ffd5b60401981019190821161055357565b5f1981019190821161055357565b60051981019190821161055357565b60221981019190821161055357565b601f1981019190821161055357565b60bf1981019190821161055357565b607f1981019190821161055357565b602003906020821161055357565b9190820391821161055357565b90610b9161085e83610a41565b906101008301926004610ba48583610a4e565b9050105f14610bca57610bbd610a4b94610bc492610a4e565b3691610ab7565b90610fff565b6001600160e01b0319610bef610be9610be38785610a4e565b90610973565b90610a81565b16620bbf7760e91b8103610c1c5750610c0e610a4b94610c1592610a4e565b8091610981565b50906115e7565b63177eee0160e01b8103610c5e57508084610c52610c4b610c43610a4b98610c5896610a4e565b939094610a4e565b9050610b01565b91610981565b9161152d565b630bbf770160e11b03610c8157610c0e610a4b94610c7b92610a4e565b916111c8565b610bbd610a4b94610bc492610a4e565b919091357fffffff000000000000000000000000000000000000000000000000000000000081169260038110610cc5575050565b7fffffff0000000000000000000000000000000000000000000000000000000000929350829060030360031b1b161690565b90918360031161012357620bbf7760e91b7fffffff0000000000000000000000000000000000000000000000000000000000610d34600384610c91565b1614610d4f57610a4b93610d479161168f565b9290916116c1565b919050610daa610db293610d6233610de7565b60408051602081019586523360601b6bffffffffffffffffffffffff191691810191909152909390610da181605481015b03601f1981018352826108a9565b5190209361168f565b929091610f5e565b15610ddb577f1626ba7e0000000000000000000000000000000000000000000000000000000090565b6001600160e01b031990565b6001600160a01b0381165f525f6020526001600160a01b0360405f20541680155f14610e11575090565b905090565b6001600160a01b03610a4b92169060016118da565b3b8015159081610e39575090565b60179150141590565b8115610e4c570490565b634e487b7160e01b5f52601260045260245ffd5b908160051b918083046020149015171561055357565b908160081b91808304610100149015171561055357565b906001820180921161055357565b90601b820180921161055357565b90601f820180921161055357565b906037820180921161055357565b9190820180921161055357565b9060148106610f36575f5b601482048110610eec57505050565b806014029060148204810361055357610f0481610e8d565b8060140290601482040361055357610f296103ab6103a5610f2f93600196888a6109ba565b33610e16565b5001610edd565b7f1c6b73d6000000000000000000000000000000000000000000000000000000005f5260045ffd5b919290926001600160e01b0319610f78610be98484610973565b16620bbf7760e91b8103610f9d575081610a4b9492610f9692610981565b5091611c45565b63177eee0160e01b8103610fc4575081610a4b949392610fbc92610981565b929091611ad6565b630bbf770160e11b03610fe95781610a4b949392610fe192610981565b929091611a1e565b610ff990610a4b94923691610ab7565b91611c99565b61100892611c99565b15611011575f90565b600190565b3590811515820361012357565b359065ffffffffffff8216820361012357565b60ff81160361012357565b35906101c882611036565b67ffffffffffffffff81116108a45760051b60200190565b9291906110708161104c565b9361107e60405195866108a9565b602085838152019160051b810192831161012357905b8282106110a057505050565b8135815260209182019101611094565b9080601f8301121561012357816020610a4b93359101611064565b6101a081360312610123576110de6108cb565b906110e8816101bd565b82526110f6602082016101bd565b602083015260408101356040830152606081013560608301526080810135608083015261112560a08201611016565b60a083015260c081013560c083015261114060e08201611023565b60e08301526111526101008201611023565b6101008301526111656101208201611041565b6101208301526101408101356101408301526101608101356101608301526101808101359067ffffffffffffffff8211610123576111a5913691016110b0565b61018082015290565b6040513d5f823e3d90fd5b90816020910312610123575190565b9291506111d7906020016110cb565b60e08101916112166111ef845165ffffffffffff1690565b61010084019565ffffffffffff8061120d895165ffffffffffff1690565b16921690611d04565b6112208383611d4b565b92610140810180519061129461129061016085019788519061128a61012088019661127c61124f895160ff1690565b6040519586936020850191926041936001600160f81b0319928452602084015260f81b1660408201520190565b03601f1981018452836108a9565b88611c99565b1590565b611520576112b26112906101808501519560c0860196875190611e11565b6115205760a083015161130a575b5050505050506112e96112dc610a4b935165ffffffffffff1690565b915165ffffffffffff1690565b6001600160d01b031965ffffffffffff60a01b9160d01b169160a01b161790565b61132a61131e84516001600160a01b031690565b6001600160a01b031690565b93602084019461134186516001600160a01b031690565b60608601986113558a519451965160ff1690565b9451905190833b15610123576113d85f96928b9288946040519a8b998a9889977fd505accf000000000000000000000000000000000000000000000000000000008952600489019360c09591989796936001600160a01b0360ff948160e089019c1688521660208701526040860152606085015216608083015260a08201520152565b03925af19081611506575b506114f3579160209161141b61140d61131e61131e61131e6114689998516001600160a01b031690565b91516001600160a01b031690565b6040517fdd62ed3e0000000000000000000000000000000000000000000000000000000081526001600160a01b039384166004820152921660248301529093849190829081906044820190565b03915afa9182156114ee575f926114bd575b505111611495576112e96112dc610a4b935b935f80806112c0565b7fb78cb0dd000000000000000000000000000000000000000000000000000000005f5260045ffd5b6114e091925060203d6020116114e7575b6114d881836108a9565b8101906111b9565b905f61147a565b503d6114ce565b6111ae565b505050506112e96112dc610a4b9361148c565b806115145f61151a936108a9565b80610119565b5f6113e3565b5050505050505050600190565b929161153891611f1c565b9060e08201916115a1611290611575611557865165ffffffffffff1690565b61010085019765ffffffffffff8061120d8b5165ffffffffffff1690565b9360408401519061159660608601519261127c61124f602089015160ff1690565b608085015190611c99565b6115de576115bd918160a060c061129094015191015190611e11565b6115d7576112e96112dc610a4b935165ffffffffffff1690565b5050600190565b50505050600190565b90918235916020840135926040850135946060810135019261163d84359183610ff961162c8560051b89019765ffffffffffff8c169065ffffffffffff8c1690611d04565b963690604060208201359101610ab7565b156116845761165993611654916020369201611064565b611e11565b156115d757610a4b91906001600160d01b031965ffffffffffff60a01b9160d01b169160a01b161790565b505050505050600190565b9182828101601f19013561649261ffff30801c190402146116ad5750565b604091935080925001350160208135910191565b92919082156117ee575b7f7fffffffffffffffffffffffffffffff5d576e7357a4501ddfe92f46681b20a06020830135116117c6576001600160a01b035f94166dd9ecebf3c23529de49815dac1c4c81149081156117bc575b811561178c575b5061176c575b8315611759575b8315611747575b505050155f03631626ba7e1760e01b90565b611751935061258c565b5f8080611735565b92506117668282856122bb565b9261172e565b925061178661177a33610de7565b84610ff9368686610ab7565b92611727565b90505f5260026020526117b33360405f20906001600160a01b03165f5260205260405f2090565b5415155f611721565b338114915061171a565b7f8baa579f000000000000000000000000000000000000000000000000000000005f5260045ffd5b61773961ffff8419040281036116cb57505050507f773900010000000000000000000000000000000000000000000000000000000090565b60019061184d935f520160205260405f20906001600160a01b03165f5260205260405f2090565b54151590565b815f526001800160205261187b8160405f20906001600160a01b03165f5260205260405f2090565b546118d457806118ce915f52600160205260405f20600181540190848260051b82015555805f52600160205260405f2054925f52600260205260405f20906001600160a01b03165f5260205260405f2090565b55600190565b50505f90565b906118e6838284611826565b611933575f81815260208390526040902080546001908101600581901b8301869055918290556118ce939091945f520160205260405f20906001600160a01b03165f5260205260405f2090565b5050505f90565b5f1981146105535760010190565b919091610120818403126101235761195e6108db565b92611968826101bd565b84526020820135602085015260408201356040850152606082013560608501526080820135608085015261199e60a08301611041565b60a085015260c082013560c085015260e082013560e085015261010082013567ffffffffffffffff8111610123576119d692016110b0565b610100830152565b35610a4b81611036565b903590601e1981360301821215610123570180359067ffffffffffffffff821161012357602001918160051b3603831361012357565b919250611a9d6112906020850193611a3f611a393687611948565b8261263f565b61010087013591611a9860e0890135611a8a611a5d60c08c016119de565b6040519687936020850191926041936001600160f81b0319928452602084015260f81b1660408201520190565b03601f1981018552846108a9565b611c99565b6119335760a061165484611abc61129095610120611ac99801906119e8565b9390910135923691611064565b611ad257600190565b5f90565b611ade6126c6565b50611ae98484611ecc565b3560f81c92611af785610b10565b611b02908683611eda565b3560f81c611b0f81610e60565b611b1890610e8d565b611b229087610b77565b611b2d90878461099e565b909290611b3b368286610ab7565b611b44906127cf565b91611b4e836127fc565b611b589089612917565b93888551611b6590612a3b565b9360208701978851986040890191825198611b7f90613184565b9190508a5192519351943690611b9492610ab7565b611b9d95612ae5565b9460600151611bab90612c66565b99611bb592612ec4565b96611bbe6108eb565b60ff918216815291166020820181905260408201859052606082018390526080820193845260a0820198895260c090910196875260408051602081019590955284019190915260f81b6001600160f81b031916606083015260418252611c256061836108a9565b51611c2f92611c99565b1561193357611ac9926112909251905190611e11565b9180359060208101350192611c7084359183610ff98460051b88013690604060208201359101610ab7565b15611c9157611c8793611654916020369201611064565b15611ad257600190565b505050505f90565b906001600160a01b03929183611caf848461270d565b911693168314611cfc576001600160a01b0391611cf2916020527b19457468657265756d205369676e6564204d6573736167653a0a33325f52603c60042061270d565b1614611011575f90565b505050600190565b9160405191602083019384526040830152606082015260608152611d296080826108a9565b5190206040516020810191825260208152611d456040826108a9565b51902090565b90604060429260c0830151611dd56001600160a01b03602086015116610d936060870151936080880151875195869460208601988991926001600160a01b0360a09497969592978160c08601997f6e71edae12b1b97f4d1f60370fef10105fa2faae0126114a169c64845d6126c98752166020860152166040840152606083015260808201520152565b51902091015190604051917f19010000000000000000000000000000000000000000000000000000000000008352600283015260228201522090565b929091905f915b8451831015611e5a57611e2b83866127a3565b519081811015611e49575f52602052600160405f205b920191611e18565b905f52602052600160405f20611e41565b915092501490565b60405190610120820182811067ffffffffffffffff8211176108a4576040525f610100838281528260208201528260408201528260608201528260808201528260a0820152606060c08201528260e08201520152565b634e487b7160e01b5f52603260045260245ffd5b9015611ed55790565b611eb8565b90821015611ed5570190565b919091356001600160d01b031981169260068110611f02575050565b6001600160d01b0319929350829060060360031b1b161690565b611f24611e62565b50611f2f8282611ecc565b3560f81c91600c91611f418383610b77565b611f4a83610b1e565b611f559184846109ba565b611f5e91611ee6565b60d01c9180611f6c81610b1e565b90611f789181856109ba565b611f8191611ee6565b60d01c93611f8f8183610b77565b611f9890610b10565b611fa3908385611eda565b3560f81c90611fb182610e60565b611fba90610e8d565b90611fc491610ec5565b611fce9083610b77565b611fd990838561099e565b9390611fe6368683610ab7565b611fef906127cf565b91611ff9836127fc565b612003908a612917565b9389855161201090612a3b565b976020870194855195604089019182519861202a90613184565b9190508a519251935194369061203f92610ab7565b61204895612ae5565b946060015161205690612c66565b9561206092612d73565b946120696108db565b60ff909916895260ff16602089015260408801526060870152608086015260a085015260c084015265ffffffffffff1660e083015265ffffffffffff1661010082015290565b90805f5260026020526120d68260405f20906001600160a01b03165f5260205260405f2090565b54918215611933575f19830191838311610553575f828152600160205260409020545f19810191908211610553575f94848484612135956118ce980361214b575b509050612126915060016134c9565b6002905f5260205260405f2090565b906001600160a01b03165f5260205260405f2090565b61216b926121266121616121359385600161347c565b80928560016134ab565b555f808481612117565b81601f820112156101235780519061218c82610918565b9261219a60405194856108a9565b8284526020838301011161012357815f9260208093018386015e8301015290565b51906101c8826101ac565b9080601f830112156101235781516121dd8161104c565b926121eb60405194856108a9565b81845260208085019260051b82010192831161012357602001905b8282106122135750505090565b8151815260209182019101612206565b9060e0828203126101235781516001600160f81b0319811681036101235792602083015167ffffffffffffffff81116101235782612262918501612175565b92604081015167ffffffffffffffff81116101235783612283918301612175565b92606082015192612296608084016121bb565b9260a08101519260c082015167ffffffffffffffff811161012357610a4b92016121c6565b90923093306124e4575b60405190600119858201013560f01c94600e830196869187810384016041198101976119015f5260408960203789158a604201841017816042601e2018176124a457507f5479706564446174615369676e2800000000000000000000000000000000000086526001198101999889818c82378188016028600e8201526029600d8201515f1a0361244e575b506f07fffffe000000000000010000000000919250999899515f1a1c5b88515f1a6028811461238e5790651201000000016001921c1798019761236d565b50929496999086986040610a4b9b83605c96989a957f20636f6e74656e74732c737472696e67206e616d652c737472696e670000000085527f2076657273696f6e2c75696e7432353620636861696e49642c61646472657373601c8601527f20766572696679696e67436f6e74726163742c627974657333322073616c7429603c8601528785013788370103018620835260e08320604052600116604201601e2092604119910301935b604052612df0576124499033612e01565b612df0565b60015f5b016029600d82840301515f1a14848210111561247057600190612452565b6028915080806040600e936f07fffffe000000000000010000000000970397886041199101010185378a0101538291612350565b949699505095505050610a4b94505f907f983e65e5148e570cd828ead231ee759a8d7958721a768f93bc4483ba005c32de5f5260205260405f2091612438565b6040516342580cb760e11b815294505f85600481335afa80156114ee575f955f5f905f925f94612553575b50906001600160a01b039291604051996020815191012060408b01526020815191012060608a015260808901521660a087015260c086015260e085016040526122c5565b925050506001600160a01b03965061257d91503d805f833e61257581836108a9565b810190612223565b5093999394509290919061250f565b92915f933a1561259b57505050565b90919293503a3a5260203a3a386d378edcd5b5b0a24f5342d8c1048561fffffa503a51156125dc575b610ff9610a4b936125d433610de7565b933691610ab7565b60405192631626ba7e3a526d378edcd5b5b0a24f5342d8c1048560205260408052454561ffff011790815a106d378edcd5b5b0a24f5342d8c1048584141761263d57610a4b94610ff9923a906064601c3a923090fa506040529350506125c4565bfe5b9060206042926080830151611dd56001600160a01b03855116610d936040870151936060880151604051958694898601988991926001600160a01b0360a09497969592978160c08601997f6e71edae12b1b97f4d1f60370fef10105fa2faae0126114a169c64845d6126c98752166020860152166040840152606083015260808201520152565b6040519060e0820182811067ffffffffffffffff8211176108a457604052606060c0835f81525f60208201525f60408201525f838201525f60808201525f60a08201520152565b9190915f92604051918151806040146127655760411461272c57505050565b602092945060608201515f1a835260408201516060525b5f5201516040526020604060805f60015afa505f6060523d6060185191604052565b5060209294507f7fffffffffffffffffffffffffffffffffffffffffffffffffffffffffffffff6040830151601b8160ff1c01855216606052612743565b8051821015611ed55760209160051b010190565b604051906127c482610888565b5f6020838281520152565b6127d76127b7565b506020815191604051926127ea84610888565b835201602082015290565b1561012357565b9061280682612f2d565b156101235761281482612f4d565b9161281e8361104c565b9061282c60405192836108a9565b838252601f1961283b8561104c565b015f5b8181106128cb5750506020810161285f815161285981612fae565b90610ec5565b945f905b808210612885575050610a4b92939461287d915190610b77565b9051146127f5565b90956128c381612896600193613019565b9061289f6108fa565b8281528160208201526128b28b8a6127a3565b526128bd8a896127a3565b50610ec5565b960190612863565b6020906128d66127b7565b8282870101520161283e565b604051906080820182811067ffffffffffffffff8211176108a457604052606080835f81525f60208201525f60408201520152565b60ff906129226128e2565b50168061299c5750600560069061297e61297860079460ff61297061295a8261296861295a8261296061295a8260089e5b168a6127a3565b51613097565b9c16876127a3565b9816846127a3565b9416906127a3565b51613148565b91612987610909565b93845260208401526040830152606082015290565b6002036129d057600760099061297e612978600a9460ff61297061295a8261296861295a8261296061295a82600b9e612953565b60405162461bcd60e51b815260206004820152602860248201527f547856616c696461746f724c69623a3a20756e737570706f727465642065766d60448201527f20747820747970650000000000000000000000000000000000000000000000006064820152608490fd5b60258110612a9c57612a4c81613172565b7f7fffffffffffffffffffffffffffffffffffffffffffffffffffffffffffffff8116810361055357612a91612a8c610a4b93612a969360011b90610b77565b610b2d565b610e9b565b60ff1690565b60018111612a9657601b81018091116105535760ff1690565b805191908290602001825e015f815290565b6001906001600160f81b0319610a4b949360f81b1681520190612ab5565b94612b3f9192612b35612b2d612b21612b4494612b1a612b0e612b13612b0e612b4a9c9d613656565b6136d2565b5192613656565b5190610ec5565b612b1a612b0e8a613656565b918551610b77565b9283918551610b77565b610b77565b916132b4565b9060ff831660028103612b82575050611d45612b71610d9392612b6b610934565b90613338565b604051928391602083019586612ac7565b91925090612bfc5760258110612bef57612be591612be0612bad612ba8612bda94613172565b6131b0565b61127c612bbb612b0e6135b1565b612bda612bc9612b0e6135b1565b916040519788956020870190612ab5565b90612ab5565b613338565b6020815191012090565b50612be590612b6b610934565b60405162461bcd60e51b8152602060048201526024808201527f547856616c696461746f724c69623a3a20756e737570706f727465642074782060448201527f74797065000000000000000000000000000000000000000000000000000000006064820152608490fd5b6020815110612ca8578051601f19810190811161055357612c8691613252565b602081519101519060208110612c9a575090565b5f199060200360031b1b1690565b608460405162461bcd60e51b815260206004820152602560248201527f54784465636f6465723a3a2063616c6c44617461206c656e67746820746f6f2060448201527f73686f72740000000000000000000000000000000000000000000000000000006064820152fd5b90612d1c8261104c565b612d2960405191826108a9565b8281528092612d3a601f199161104c565b0190602036910137565b60ff168015610553575f190190565b359060208110612c9a575090565b60ff5f199116019060ff821161055357565b929190612d8260ff8316612d12565b93600b198201828111610553575f198101908111610553579291925b60ff8316612dac5750505050565b612de481612dd0612dca82612dc3612dea96610b3c565b89886109ba565b90612d53565b612dde60ff61295388612d61565b52610b3c565b92612d44565b91612d9e565b610ff9610a4b93926125d433610de7565b5f6001600160a01b03916004604051809481936342580cb760e11b8352165afa9081156114ee5760a0915f915f5f915f93612e9f575b50604051937f8b73c3c69bb8fe3d512ecc4cf759cc79239f7b179b0ffacaa9a75d522b39400f855260208151910120602085015260208151910120604084015260608301526080820152206719010000000000005f52601a52603a526042601820905f603a52565b92505050612eb791503d805f833e61257581836108a9565b509394509250905f612e37565b9291612ed260ff8216612d12565b935f198301838111610553575b60ff8316612eed5750505050565b601f19810181811161055357612f0b612dca612f27938388876109ba565b612f2060ff612f1987612d61565b16896127a3565b5292612d44565b91612edf565b805115612f4857602060c0910151515f1a10611ad257600190565b505f90565b805115612f48575f9060208101908151612f6681612fae565b8101809111610553579151905181018091116105535791905b828110612f8c5750905090565b612f9581613019565b810180911161055357612fa8909161193a565b90612f7f565b515f1a6080811015612fbf57505f90565b60b881108015613003575b15612fd55750600190565b60c0811015612ff457610a4b90612fef9060b75b90610b77565b610e8d565b610a4b90612fef9060f7612fe9565b5060c08110158015612fca575060f88110612fca565b80515f1a90608082101561302e575050600190565b60b88210156130445750612fef610a4b91610b5a565b60c08210156130675760010151602082900360b7016101000a90040160b5190190565b60f882101561307d5750612fef610a4b91610b4b565b60010151602082900360f7016101000a90040160f5190190565b805180151590816130cd575b5015610123576130b290613184565b905190602081106130c1575090565b6020036101000a900490565b6021915011155f6130a3565b604080519091906130ea83826108a9565b60208152918290601f190190369060200137565b6040805190919061310f83826108a9565b6001815291601f1901366020840137565b9061312a82610918565b61313760405191826108a9565b8281528092612d3a601f1991610918565b8051156101235761315b610a4b91613184565b61316781939293613120565b928360200190613520565b60221981019081116105535760011c90565b9060208201916131948351612fae565b9251908382018092116105535751928303928311610553579190565b612b0e610a4b91613656565b156131c357565b606460405162461bcd60e51b815260206004820152600e60248201527f736c6963655f6f766572666c6f770000000000000000000000000000000000006044820152fd5b1561320e57565b606460405162461bcd60e51b815260206004820152601160248201527f736c6963655f6f75744f66426f756e64730000000000000000000000000000006044820152fd5b9061325d60016131bc565b613274825161326d602084610ec5565b1115613207565b6040519160208084019260408501920101905b8083106132a157505060208252601f01601f191660405290565b9091602080918451815201920190613287565b916132c9816132c281610ea9565b10156131bc565b6132d8835161326d8385610ec5565b806132f0575050506040515f81526020810160405290565b60405192601f821692831560051b80858701019484860193010101905b8084106133255750508252601f01601f191660405290565b909260208091855181520193019061330d565b61335390610d93612bda936040519485936020850190612ab5565b80519060388210156133a757612bda91610d93610a4b926001600160f81b031961338660c06133806130fe565b95610ec5565b60f81b165f1a61339584613593565b535b6040519485936020850190612ab5565b916001915f5b6133b78483610e42565b156133d4576133c86133ce9161193a565b93610e76565b926133ad565b9092509290926133eb6133e682610e8d565b613120565b926001600160f81b031961340861340360c085610ec5565b610eb7565b60f81b165f1a61341785613593565b5360015b8281111561343657505050612bda91610d93610a4b92613397565b806001600160f81b0319613461612a9661345b6134566134779689610b77565b613511565b86610e42565b60f81b165f1a61347182886135a0565b5361193a565b61341b565b905f5260205260405f2090815481101561349b5760010160051b015490565b638277484f5f526020526024601cfd5b905f5260205260405f2090815481101561349b5760010160051b0155565b905f5260205260405f20805490811561350d575f198201918083116105535781548310156134fc575f9060051b82015555565b82638277484f5f526020526024601cfd5b5050565b601f8111610553576101000a90565b9091801561358e575b602081101561355e578061353c57505050565b61354b61345661355092610b69565b610b10565b905182518216911916179052565b919080518252602081018091116105535790602081018091116105535791601f1981019081111561352957610aed565b505050565b805115611ed55760200190565b908151811015611ed5570160200190565b6135b96130d9565b905f60208301525f915b60208310613625575b6135d86133e684610b69565b905f5b825181101561361e5760019061360b6135fd6135f68861193a565b97856135a0565b516001600160f81b03191690565b5f1a61361782866135a0565b53016135db565b5090925050565b916136436136366135fd83866135a0565b6001600160f81b03191690565b61365057600101916135c3565b916135cc565b9061365f6130d9565b9160208301525f915b602083106136ae575b61367d6133e684610b69565b905f5b825181101561361e5760019061369b6135fd6135f68861193a565b5f1a6136a782866135a0565b5301613680565b916136bf6136366135fd83866135a0565b6136cc5760010191613668565b91613671565b805160018114908161376c575b50156136e85790565b6136f28151613784565b6040519181518084526020840190840191602083019160208501905b83811061375c5750508051809286518201875293019260208085019201905b82811061374c5750509251603f91011590910101601f19166040525090565b815181526020918201910161372d565b815181526020918201910161370e565b905015611ed5576080602082015160f81c105f6136df565b60388110156137bc576001600160f81b03196137a960806137a36130fe565b93610ec5565b60f81b165f1a6137b882613593565b5390565b6001915f5b6137cb8484610e42565b156137e2576133c86137dc9161193a565b926137c1565b9092506137f16133e682610e8d565b916001600160f81b0319613809613403608085610ec5565b60f81b165f1a61381884613593565b5360015b8281111561382a5750505090565b806001600160f81b031961384a612a9661345b61345661385a9689610b77565b60f81b165f1a61347182876135a0565b61381c56fea164736f6c634300081b000a","linkReferences":{}},"methodIdentifiers":{"addSafeSender(address)":"5c81ca68","getOwner(address)":"fa544161","isInitialized(address)":"d60b347f","isModuleType(uint256)":"ecd05961","isSafeSender(address,address)":"0807dbc1","isValidSignatureWithSender(address,bytes32,bytes)":"f551e2ee","name()":"06fdde03","onInstall(bytes)":"6d61fe70","onUninstall(bytes)":"8a91b0e3","removeSafeSender(address)":"e824b568","smartAccountOwners(address)":"2e5b63a6","supportsNestedTypedDataSign()":"d620c85a","transferOwnership(address)":"f2fde38b","validateSignatureWithData(bytes32,bytes,bytes)":"940d3840","validateUserOp((address,uint256,bytes,bytes,bytes32,uint256,bytes32,bytes,bytes),bytes32)":"97003203","version()":"54fd4d50"},"id":14}