{"abi":[{"type":"constructor","inputs":[{"name":"_entryPoint","type":"address","internalType":"contract IEntryPoint"},{"name":"_meeNodeAddress","type":"address","internalType":"address"}],"stateMutability":"payable"},{"type":"function","name":"addStake","inputs":[{"name":"unstakeDelaySec","type":"uint32","internalType":"uint32"}],"outputs":[],"stateMutability":"payable"},{"type":"function","name":"deposit","inputs":[],"outputs":[],"stateMutability":"payable"},{"type":"function","name":"entryPoint","inputs":[],"outputs":[{"name":"","type":"address","internalType":"contract IEntryPoint"}],"stateMutability":"view"},{"type":"function","name":"getDeposit","inputs":[],"outputs":[{"name":"","type":"uint256","internalType":"uint256"}],"stateMutability":"view"},{"type":"function","name":"owner","inputs":[],"outputs":[{"name":"","type":"address","internalType":"address"}],"stateMutability":"view"},{"type":"function","name":"postOp","inputs":[{"name":"mode","type":"uint8","internalType":"enum IPaymaster.PostOpMode"},{"name":"context","type":"bytes","internalType":"bytes"},{"name":"actualGasCost","type":"uint256","internalType":"uint256"},{"name":"actualUserOpFeePerGas","type":"uint256","internalType":"uint256"}],"outputs":[],"stateMutability":"nonpayable"},{"type":"function","name":"renounceOwnership","inputs":[],"outputs":[],"stateMutability":"nonpayable"},{"type":"function","name":"transferOwnership","inputs":[{"name":"newOwner","type":"address","internalType":"address"}],"outputs":[],"stateMutability":"nonpayable"},{"type":"function","name":"unlockStake","inputs":[],"outputs":[],"stateMutability":"nonpayable"},{"type":"function","name":"validatePaymasterUserOp","inputs":[{"name":"userOp","type":"tuple","internalType":"struct PackedUserOperation","components":[{"name":"sender","type":"address","internalType":"address"},{"name":"nonce","type":"uint256","internalType":"uint256"},{"name":"initCode","type":"bytes","internalType":"bytes"},{"name":"callData","type":"bytes","internalType":"bytes"},{"name":"accountGasLimits","type":"bytes32","internalType":"bytes32"},{"name":"preVerificationGas","type":"uint256","internalType":"uint256"},{"name":"gasFees","type":"bytes32","internalType":"bytes32"},{"name":"paymasterAndData","type":"bytes","internalType":"bytes"},{"name":"signature","type":"bytes","internalType":"bytes"}]},{"name":"userOpHash","type":"bytes32","internalType":"bytes32"},{"name":"maxCost","type":"uint256","internalType":"uint256"}],"outputs":[{"name":"context","type":"bytes","internalType":"bytes"},{"name":"validationData","type":"uint256","internalType":"uint256"}],"stateMutability":"nonpayable"},{"type":"function","name":"wasUserOpExecuted","inputs":[{"name":"userOpHash","type":"bytes32","internalType":"bytes32"}],"outputs":[{"name":"","type":"bool","internalType":"bool"}],"stateMutability":"view"},{"type":"function","name":"withdrawStake","inputs":[{"name":"withdrawAddress","type":"address","internalType":"address payable"}],"outputs":[],"stateMutability":"nonpayable"},{"type":"function","name":"withdrawTo","inputs":[{"name":"withdrawAddress","type":"address","internalType":"address payable"},{"name":"amount","type":"uint256","internalType":"uint256"}],"outputs":[],"stateMutability":"nonpayable"},{"type":"event","name":"OwnershipTransferred","inputs":[{"name":"previousOwner","type":"address","indexed":true,"internalType":"address"},{"name":"newOwner","type":"address","indexed":true,"internalType":"address"}],"anonymous":false},{"type":"error","name":"Disabled","inputs":[]},{"type":"error","name":"EmptyMessageValue","inputs":[]},{"type":"error","name":"InsufficientBalance","inputs":[]},{"type":"error","name":"OnlySponsorOwnStuff","inputs":[]},{"type":"error","name":"OwnableInvalidOwner","inputs":[{"name":"owner","type":"address","internalType":"address"}]},{"type":"error","name":"OwnableUnauthorizedAccount","inputs":[{"name":"account","type":"address","internalType":"address"}]},{"type":"error","name":"PaymasterVerificationGasLimitTooHigh","inputs":[]},{"type":"error","name":"PostOpGasLimitTooLow","inputs":[]}],"bytecode":{"object":"0x60a080604052604081610dba803803809161001a8285610195565b83398101031261016b578051906001600160a01b0382169081830361016b5760200151906001600160a01b038216820361016b573315610182576020602491610062336101cc565b6040516301ffc9a760e01b815263122a0e9b60e31b600482015292839182905afa908115610177575f91610138575b50156100f3576100a3916080526101cc565b604051610ba7908161021382396080518181816101720152818161024a015281816102e8015281816103850152818161040a0152818161056d015281816108ea015281816109810152610aa00152f35b60405162461bcd60e51b815260206004820152601e60248201527f49456e747279506f696e7420696e74657266616365206d69736d6174636800006044820152606490fd5b90506020813d60201161016f575b8161015360209383610195565b8101031261016b5751801515810361016b575f610091565b5f80fd5b3d9150610146565b6040513d5f823e3d90fd5b631e4fbdf760e01b5f525f60045260245ffd5b601f909101601f19168101906001600160401b038211908210176101b857604052565b634e487b7160e01b5f52604160045260245ffd5b5f80546001600160a01b039283166001600160a01b03198216811783559216907f8be0079c531659141344cd1fd0a4f28419497f9722a3daafe3b4186f6b6457e09080a356fe60806040526004361015610011575f80fd5b5f5f3560e01c80630396cb6014610951578063205c2878146108bd57806348f8f0fc1461088e57806352b7512c1461067d578063715018a6146106175780637c627b21146104545780638da5cb5b1461042e578063b0d691fe146103ea578063bb9fe6bf14610361578063c23a5cea146102bb578063c399ec88146101fd578063d0e30db01461015b5763f2fde38b146100a9575f80fd5b34610158576020366003190112610158576004356001600160a01b038116809103610156576100d6610a57565b801561012a576001600160a01b0382548273ffffffffffffffffffffffffffffffffffffffff198216178455167f8be0079c531659141344cd1fd0a4f28419497f9722a3daafe3b4186f6b6457e08380a380f35b6024827f1e4fbdf700000000000000000000000000000000000000000000000000000000815280600452fd5b505b80fd5b508060031936011261015857806001600160a01b037f000000000000000000000000000000000000000000000000000000000000000016803b156101fa5781602491604051928380927fb760faf900000000000000000000000000000000000000000000000000000000825230600483015234905af180156101ef576101de5750f35b816101e891610a21565b6101585780f35b6040513d84823e3d90fd5b50fd5b50346101585780600319360112610158576040517f70a082310000000000000000000000000000000000000000000000000000000081523060048201526020816024816001600160a01b037f0000000000000000000000000000000000000000000000000000000000000000165afa9081156101ef578291610285575b602082604051908152f35b90506020813d6020116102b3575b816102a060209383610a21565b810103126101565760209150515f61027a565b3d9150610293565b503461015857602036600319011261015857806102d6610a0b565b6102de610a57565b6001600160a01b037f00000000000000000000000000000000000000000000000000000000000000001690813b1561035d576001600160a01b03602484928360405195869485937fc23a5cea0000000000000000000000000000000000000000000000000000000085521660048401525af180156101ef576101de5750f35b5050fd5b503461015857806003193601126101585761037a610a57565b806001600160a01b037f000000000000000000000000000000000000000000000000000000000000000016803b156101fa578180916004604051809481937fbb9fe6bf0000000000000000000000000000000000000000000000000000000083525af180156101ef576101de5750f35b503461015857806003193601126101585760206040516001600160a01b037f0000000000000000000000000000000000000000000000000000000000000000168152f35b50346101585780600319360112610158576001600160a01b036020915416604051908152f35b50346101585760803660031901126101585760036004351015610158576024359067ffffffffffffffff8211610158573660238301121561015857816004013567ffffffffffffffff8111610156576024369184010111610158576064356104ba610a96565b60648301359260848101358352600160205260408320600160ff198254161790558115610603576105158260443504926105106104fd869560c486013590610b59565b600a610509828a610b7a565b0490610b59565b610b87565b9360a48201356298968001948562989680116105ef5761054f8661051062989680610542899a8296610b87565b0494604487013590610b87565b048082106105dc575b505081610563575050f35b6001600160a01b037f00000000000000000000000000000000000000000000000000000000000000001690813b156105d75760405163040b850f60e31b81526001600160a01b036024928301351660048201529081019290925282908290604490829084905af180156101ef576101de5750f35b505050fd5b6105e7929350610b7a565b905f80610558565b602485634e487b7160e01b81526011600452fd5b602483634e487b7160e01b81526012600452fd5b5034610158578060031936011261015857610630610a57565b806001600160a01b03815473ffffffffffffffffffffffffffffffffffffffff1981168355167f8be0079c531659141344cd1fd0a4f28419497f9722a3daafe3b4186f6b6457e08280a380f35b50346101585760603660031901126101585760043567ffffffffffffffff8111610156578060040190610120600319823603011261088a576106bd610a96565b6001600160a01b0383541632036108625760e481016106dc8184610b26565b908160341161084a576034013590602060331982011061084e575b506107028285610b26565b60341161084a576024013560801c9061c34f821115610822578435926001600160a01b03841680940361081e5761076b9061076560848701356fffffffffffffffffffffffffffffffff61075d8260801c60a48b0135610b59565b911690610b59565b96610b26565b60241161081e578261079c6060976fffffffffffffffffffffffffffffffff60146107a195013560801c1690610b59565b610b59565b6fffffffffffffffffffffffffffffffff60c46040519660208801968752013516604086015285850152602435608085015260a084015260c083015260c082526107ec60e083610a21565b604051938492604084525180928160408601528585015e82820184018190526020830152601f01601f19168101030190f35b8680fd5b6004867f0359a00f000000000000000000000000000000000000000000000000000000008152fd5b8580fd5b60345f19916020030160031b1b165f6106f7565b6004837f64fc1972000000000000000000000000000000000000000000000000000000008152fd5b8280fd5b50346101585760203660031901126101585760ff60406020926004358152600184522054166040519015158152f35b503461015857604036600319011261015857806108d8610a0b565b6108e0610a57565b6001600160a01b037f000000000000000000000000000000000000000000000000000000000000000016803b1561035d5760405163040b850f60e31b81526001600160a01b03929092166004830152602480359083015282908290604490829084905af180156101ef576101de5750f35b506020366003190112610a075760043563ffffffff8116809103610a0757610977610a57565b6001600160a01b037f00000000000000000000000000000000000000000000000000000000000000001690813b15610a07575f906024604051809481937f0396cb60000000000000000000000000000000000000000000000000000000008352600483015234905af180156109fc576109ee575080f35b6109fa91505f90610a21565b005b6040513d5f823e3d90fd5b5f80fd5b600435906001600160a01b0382168203610a0757565b90601f8019910116810190811067ffffffffffffffff821117610a4357604052565b634e487b7160e01b5f52604160045260245ffd5b6001600160a01b035f54163303610a6a57565b7f118cdaa7000000000000000000000000000000000000000000000000000000005f523360045260245ffd5b6001600160a01b037f0000000000000000000000000000000000000000000000000000000000000000163303610ac857565b60646040517f08c379a000000000000000000000000000000000000000000000000000000000815260206004820152601560248201527f53656e646572206e6f7420456e747279506f696e7400000000000000000000006044820152fd5b903590601e1981360301821215610a07570180359067ffffffffffffffff8211610a0757602001918136038313610a0757565b91908201809211610b6657565b634e487b7160e01b5f52601160045260245ffd5b91908203918211610b6657565b81810292918115918404141715610b665756fea164736f6c634300081b000a","linkReferences":{}},"methodIdentifiers":{"addStake(uint32)":"0396cb60","deposit()":"d0e30db0","entryPoint()":"b0d691fe","getDeposit()":"c399ec88","owner()":"8da5cb5b","postOp(uint8,bytes,uint256,uint256)":"7c627b21","renounceOwnership()":"715018a6","transferOwnership(address)":"f2fde38b","unlockStake()":"bb9fe6bf","validatePaymasterUserOp((address,uint256,bytes,bytes,bytes32,uint256,bytes32,bytes,bytes),bytes32,uint256)":"52b7512c","wasUserOpExecuted(bytes32)":"48f8f0fc","withdrawStake(address)":"c23a5cea","withdrawTo(address,uint256)":"205c2878"},"id":1}