{"abi":[{"type":"constructor","inputs":[{"name":"_entryPoint","type":"address","internalType":"contract IEntryPoint"},{"name":"_meeNodeAddress","type":"address","internalType":"address"}],"stateMutability":"payable"},{"type":"function","name":"addStake","inputs":[{"name":"unstakeDelaySec","type":"uint32","internalType":"uint32"}],"outputs":[],"stateMutability":"payable"},{"type":"function","name":"deposit","inputs":[],"outputs":[],"stateMutability":"payable"},{"type":"function","name":"entryPoint","inputs":[],"outputs":[{"name":"","type":"address","internalType":"contract IEntryPoint"}],"stateMutability":"view"},{"type":"function","name":"getDeposit","inputs":[],"outputs":[{"name":"","type":"uint256","internalType":"uint256"}],"stateMutability":"view"},{"type":"function","name":"owner","inputs":[],"outputs":[{"name":"","type":"address","internalType":"address"}],"stateMutability":"view"},{"type":"function","name":"postOp","inputs":[{"name":"mode","type":"uint8","internalType":"enum IPaymaster.PostOpMode"},{"name":"context","type":"bytes","internalType":"bytes"},{"name":"actualGasCost","type":"uint256","internalType":"uint256"},{"name":"actualUserOpFeePerGas","type":"uint256","internalType":"uint256"}],"outputs":[],"stateMutability":"nonpayable"},{"type":"function","name":"renounceOwnership","inputs":[],"outputs":[],"stateMutability":"nonpayable"},{"type":"function","name":"transferOwnership","inputs":[{"name":"newOwner","type":"address","internalType":"address"}],"outputs":[],"stateMutability":"nonpayable"},{"type":"function","name":"unlockStake","inputs":[],"outputs":[],"stateMutability":"nonpayable"},{"type":"function","name":"validatePaymasterUserOp","inputs":[{"name":"userOp","type":"tuple","internalType":"struct PackedUserOperation","components":[{"name":"sender","type":"address","internalType":"address"},{"name":"nonce","type":"uint256","internalType":"uint256"},{"name":"initCode","type":"bytes","internalType":"bytes"},{"name":"callData","type":"bytes","internalType":"bytes"},{"name":"accountGasLimits","type":"bytes32","internalType":"bytes32"},{"name":"preVerificationGas","type":"uint256","internalType":"uint256"},{"name":"gasFees","type":"bytes32","internalType":"bytes32"},{"name":"paymasterAndData","type":"bytes","internalType":"bytes"},{"name":"signature","type":"bytes","internalType":"bytes"}]},{"name":"userOpHash","type":"bytes32","internalType":"bytes32"},{"name":"maxCost","type":"uint256","internalType":"uint256"}],"outputs":[{"name":"context","type":"bytes","internalType":"bytes"},{"name":"validationData","type":"uint256","internalType":"uint256"}],"stateMutability":"nonpayable"},{"type":"function","name":"wasUserOpExecuted","inputs":[{"name":"userOpHash","type":"bytes32","internalType":"bytes32"}],"outputs":[{"name":"","type":"bool","internalType":"bool"}],"stateMutability":"view"},{"type":"function","name":"withdrawStake","inputs":[{"name":"withdrawAddress","type":"address","internalType":"address payable"}],"outputs":[],"stateMutability":"nonpayable"},{"type":"function","name":"withdrawTo","inputs":[{"name":"withdrawAddress","type":"address","internalType":"address payable"},{"name":"amount","type":"uint256","internalType":"uint256"}],"outputs":[],"stateMutability":"nonpayable"},{"type":"event","name":"OwnershipTransferred","inputs":[{"name":"previousOwner","type":"address","indexed":true,"internalType":"address"},{"name":"newOwner","type":"address","indexed":true,"internalType":"address"}],"anonymous":false},{"type":"error","name":"Disabled","inputs":[]},{"type":"error","name":"EmptyMessageValue","inputs":[]},{"type":"error","name":"InsufficientBalance","inputs":[]},{"type":"error","name":"OnlySponsorOwnStuff","inputs":[]},{"type":"error","name":"OwnableInvalidOwner","inputs":[{"name":"owner","type":"address","internalType":"address"}]},{"type":"error","name":"OwnableUnauthorizedAccount","inputs":[{"name":"account","type":"address","internalType":"address"}]},{"type":"error","name":"PaymasterVerificationGasLimitTooHigh","inputs":[]}],"bytecode":{"object":"0x60a080604052604081610d8f803803809161001a8285610195565b83398101031261016b578051906001600160a01b0382169081830361016b5760200151906001600160a01b038216820361016b573315610182576020602491610062336101cc565b6040516301ffc9a760e01b815263122a0e9b60e31b600482015292839182905afa908115610177575f91610138575b50156100f3576100a3916080526101cc565b604051610b7c908161021382396080518181816101720152818161024a015281816102e8015281816103850152818161040a0152818161058e015281816108bf015281816109560152610a750152f35b60405162461bcd60e51b815260206004820152601e60248201527f49456e747279506f696e7420696e74657266616365206d69736d6174636800006044820152606490fd5b90506020813d60201161016f575b8161015360209383610195565b8101031261016b5751801515810361016b575f610091565b5f80fd5b3d9150610146565b6040513d5f823e3d90fd5b631e4fbdf760e01b5f525f60045260245ffd5b601f909101601f19168101906001600160401b038211908210176101b857604052565b634e487b7160e01b5f52604160045260245ffd5b5f80546001600160a01b039283166001600160a01b03198216811783559216907f8be0079c531659141344cd1fd0a4f28419497f9722a3daafe3b4186f6b6457e09080a356fe60806040526004361015610011575f80fd5b5f5f3560e01c80630396cb6014610926578063205c28781461089257806348f8f0fc1461086357806352b7512c1461069e578063715018a6146106385780637c627b21146104545780638da5cb5b1461042e578063b0d691fe146103ea578063bb9fe6bf14610361578063c23a5cea146102bb578063c399ec88146101fd578063d0e30db01461015b5763f2fde38b146100a9575f80fd5b34610158576020366003190112610158576004356001600160a01b038116809103610156576100d6610a2c565b801561012a576001600160a01b0382548273ffffffffffffffffffffffffffffffffffffffff198216178455167f8be0079c531659141344cd1fd0a4f28419497f9722a3daafe3b4186f6b6457e08380a380f35b6024827f1e4fbdf700000000000000000000000000000000000000000000000000000000815280600452fd5b505b80fd5b508060031936011261015857806001600160a01b037f000000000000000000000000000000000000000000000000000000000000000016803b156101fa5781602491604051928380927fb760faf900000000000000000000000000000000000000000000000000000000825230600483015234905af180156101ef576101de5750f35b816101e8916109f6565b6101585780f35b6040513d84823e3d90fd5b50fd5b50346101585780600319360112610158576040517f70a082310000000000000000000000000000000000000000000000000000000081523060048201526020816024816001600160a01b037f0000000000000000000000000000000000000000000000000000000000000000165afa9081156101ef578291610285575b602082604051908152f35b90506020813d6020116102b3575b816102a0602093836109f6565b810103126101565760209150515f61027a565b3d9150610293565b503461015857602036600319011261015857806102d66109e0565b6102de610a2c565b6001600160a01b037f00000000000000000000000000000000000000000000000000000000000000001690813b1561035d576001600160a01b03602484928360405195869485937fc23a5cea0000000000000000000000000000000000000000000000000000000085521660048401525af180156101ef576101de5750f35b5050fd5b503461015857806003193601126101585761037a610a2c565b806001600160a01b037f000000000000000000000000000000000000000000000000000000000000000016803b156101fa578180916004604051809481937fbb9fe6bf0000000000000000000000000000000000000000000000000000000083525af180156101ef576101de5750f35b503461015857806003193601126101585760206040516001600160a01b037f0000000000000000000000000000000000000000000000000000000000000000168152f35b50346101585780600319360112610158576001600160a01b036020915416604051908152f35b50346101585760803660031901126101585760036004351015610158576024359067ffffffffffffffff8211610158573660238301121561015857816004013567ffffffffffffffff81116101565782013660248201116101565760a0606435916104bd610a6b565b849003126101565760248301356001600160a01b0381168091036106345760648401359360848101358452600160205260408420600160ff19825416179055821561062057826044350492849361c350810180911161060c579061053182600a61052a610536958b610b4f565b0490610b2e565b610b5c565b9460a482013562989680019586629896801161060c578661053162989680936044856105668b9c61057097610b5c565b0496013590610b5c565b048082106105f9575b505081610584575050f35b6001600160a01b037f00000000000000000000000000000000000000000000000000000000000000001691823b156105f45760405163040b850f60e31b81526001600160a01b0392909216600483015260248201529082908290604490829084905af180156101ef576101de5750f35b505050fd5b610604929350610b4f565b905f80610579565b602486634e487b7160e01b81526011600452fd5b602484634e487b7160e01b81526012600452fd5b8280fd5b5034610158578060031936011261015857610651610a2c565b806001600160a01b03815473ffffffffffffffffffffffffffffffffffffffff1981168355167f8be0079c531659141344cd1fd0a4f28419497f9722a3daafe3b4186f6b6457e08280a380f35b50346101585760603660031901126101585760043567ffffffffffffffff81116101565780600401906101206003198236030112610634576106de610a6b565b6001600160a01b03835416320361083b5760e481016106fd8184610afb565b908160341161081f5760340135906020603319820110610827575b508335916001600160a01b03831680930361081f5761075f60848501356fffffffffffffffffffffffffffffffff6107578260801c60a4890135610b2e565b911690610b2e565b9061076a8187610afb565b6024116108235761078c92610786916014013560801c90610b2e565b95610afb565b60341161081f576060946107a7916024013560801c90610b2e565b6fffffffffffffffffffffffffffffffff60c46040519560208701958652013516604085015284840152602435608084015260a083015260a082526107ed60c0836109f6565b604051938492604084525180928160408601528585015e82820184018190526020830152601f01601f19168101030190f35b8580fd5b8780fd5b60345f19916020030160031b1b165f610718565b6004837f64fc1972000000000000000000000000000000000000000000000000000000008152fd5b50346101585760203660031901126101585760ff60406020926004358152600184522054166040519015158152f35b503461015857604036600319011261015857806108ad6109e0565b6108b5610a2c565b6001600160a01b037f000000000000000000000000000000000000000000000000000000000000000016803b1561035d5760405163040b850f60e31b81526001600160a01b03929092166004830152602480359083015282908290604490829084905af180156101ef576101de5750f35b5060203660031901126109dc5760043563ffffffff81168091036109dc5761094c610a2c565b6001600160a01b037f00000000000000000000000000000000000000000000000000000000000000001690813b156109dc575f906024604051809481937f0396cb60000000000000000000000000000000000000000000000000000000008352600483015234905af180156109d1576109c3575080f35b6109cf91505f906109f6565b005b6040513d5f823e3d90fd5b5f80fd5b600435906001600160a01b03821682036109dc57565b90601f8019910116810190811067ffffffffffffffff821117610a1857604052565b634e487b7160e01b5f52604160045260245ffd5b6001600160a01b035f54163303610a3f57565b7f118cdaa7000000000000000000000000000000000000000000000000000000005f523360045260245ffd5b6001600160a01b037f0000000000000000000000000000000000000000000000000000000000000000163303610a9d57565b60646040517f08c379a000000000000000000000000000000000000000000000000000000000815260206004820152601560248201527f53656e646572206e6f7420456e747279506f696e7400000000000000000000006044820152fd5b903590601e19813603018212156109dc570180359067ffffffffffffffff82116109dc576020019181360383136109dc57565b91908201809211610b3b57565b634e487b7160e01b5f52601160045260245ffd5b91908203918211610b3b57565b81810292918115918404141715610b3b5756fea164736f6c634300081b000a","linkReferences":{}},"methodIdentifiers":{"addStake(uint32)":"0396cb60","deposit()":"d0e30db0","entryPoint()":"b0d691fe","getDeposit()":"c399ec88","owner()":"8da5cb5b","postOp(uint8,bytes,uint256,uint256)":"7c627b21","renounceOwnership()":"715018a6","transferOwnership(address)":"f2fde38b","unlockStake()":"bb9fe6bf","validatePaymasterUserOp((address,uint256,bytes,bytes,bytes32,uint256,bytes32,bytes,bytes),bytes32,uint256)":"52b7512c","wasUserOpExecuted(bytes32)":"48f8f0fc","withdrawStake(address)":"c23a5cea","withdrawTo(address,uint256)":"205c2878"},"id":1}