{"abi":[{"type":"constructor","inputs":[{"name":"_entryPoint","type":"address","internalType":"contract IEntryPoint"},{"name":"_nodePmCodeHash","type":"bytes32","internalType":"bytes32"}],"stateMutability":"nonpayable"},{"type":"function","name":"entryPoint","inputs":[],"outputs":[{"name":"","type":"address","internalType":"contract IEntryPoint"}],"stateMutability":"view"},{"type":"function","name":"handleOps","inputs":[{"name":"userOps","type":"tuple[]","internalType":"struct PackedUserOperation[]","components":[{"name":"sender","type":"address","internalType":"address"},{"name":"nonce","type":"uint256","internalType":"uint256"},{"name":"initCode","type":"bytes","internalType":"bytes"},{"name":"callData","type":"bytes","internalType":"bytes"},{"name":"accountGasLimits","type":"bytes32","internalType":"bytes32"},{"name":"preVerificationGas","type":"uint256","internalType":"uint256"},{"name":"gasFees","type":"bytes32","internalType":"bytes32"},{"name":"paymasterAndData","type":"bytes","internalType":"bytes"},{"name":"signature","type":"bytes","internalType":"bytes"}]},{"name":"beneficiary","type":"address","internalType":"address payable"}],"outputs":[],"stateMutability":"nonpayable"},{"type":"function","name":"nodePmCodeHash","inputs":[],"outputs":[{"name":"","type":"bytes32","internalType":"bytes32"}],"stateMutability":"view"},{"type":"error","name":"InvalidPMCodeHash","inputs":[{"name":"pmCodeHashOnChain","type":"bytes32","internalType":"bytes32"}]}],"bytecode":{"object":"0x60c03461008857601f61051e38819003918201601f19168301916001600160401b0383118484101761008c578084926040948552833981010312610088578051906001600160a01b038216820361008857602001519060805260a05260405161047d90816100a1823960805181818160a5015261022a015260a051818181605201526101420152f35b5f80fd5b634e487b7160e01b5f52604160045260245ffdfe60806040526004361015610011575f80fd5b5f5f3560e01c8063765e827f146100c9578063b0d691fe146100785763f1d9c3ea1461003b575f80fd5b3461007557806003193601126100755760206040517f00000000000000000000000000000000000000000000000000000000000000008152f35b80fd5b5034610075578060031936011261007557602060405173ffffffffffffffffffffffffffffffffffffffff7f0000000000000000000000000000000000000000000000000000000000000000168152f35b503461020b57604036600319011261020b5760043567ffffffffffffffff811161020b573660238201121561020b5780600401359167ffffffffffffffff831161020b578260051b91366024848301011161020b576024359173ffffffffffffffffffffffffffffffffffffffff831680930361020b577f0000000000000000000000000000000000000000000000000000000000000000949293368390036101421901935f5b8181101561020f5760248160051b860101358681121561020b578501610104810135604219368390030181121561020b570160240180359067ffffffffffffffff821161020b5760200190803603821361020b5760141161020b573560601c3f8881036101e05750600101610170565b7f34ca27fa000000000000000000000000000000000000000000000000000000005f5260045260245ffd5b5f80fd5b5083868673ffffffffffffffffffffffffffffffffffffffff7f00000000000000000000000000000000000000000000000000000000000000001693843b1561020b57926040929192519586947f765e827f000000000000000000000000000000000000000000000000000000008652806044870160406004890152526064808701928701019460248401935f915b838310610314578b895f818d8183818f8f602483015203925af18015610309576102c6575080f35b905067ffffffffffffffff81116102dc57604052005b7f4e487b71000000000000000000000000000000000000000000000000000000005f52604160045260245ffd5b6040513d5f823e3d90fd5b9193959690929497506063198a820301865287358281121561020b578301906024820180359073ffffffffffffffffffffffffffffffffffffffff821680920361020b57600193836103fc61040b93602096958796526044840135868401526101246103f46103ba61039f61038c606489018661041e565b61012060408a0152610120890191610450565b6103ac608489018661041e565b9088830360608a0152610450565b60a4870135608087015260c487013560a087015260e487013560c08701526103e661010488018561041e565b9087830360e0890152610450565b94019061041e565b91610100818503910152610450565b990196019301909189979695949261029e565b9035601e198236030181121561020b57016020813591019167ffffffffffffffff821161020b57813603831361020b57565b908060209392818452848401375f828201840152601f01601f191601019056fea164736f6c634300081b000a","linkReferences":{}},"methodIdentifiers":{"entryPoint()":"b0d691fe","handleOps((address,uint256,bytes,bytes,bytes32,uint256,bytes32,bytes,bytes)[],address)":"765e827f","nodePmCodeHash()":"f1d9c3ea"},"id":0}