{"abi":[{"type":"constructor","inputs":[{"name":"_entryPoint","type":"address","internalType":"contract IEntryPoint"}],"stateMutability":"payable"},{"type":"function","name":"addStake","inputs":[{"name":"unstakeDelaySec","type":"uint32","internalType":"uint32"}],"outputs":[],"stateMutability":"payable"},{"type":"function","name":"calculateRefund","inputs":[{"name":"maxGasLimit","type":"uint256","internalType":"uint256"},{"name":"maxFeePerGas","type":"uint256","internalType":"uint256"},{"name":"actualGasCost","type":"uint256","internalType":"uint256"},{"name":"nodeOperatorPremium","type":"uint256","internalType":"uint256"}],"outputs":[{"name":"refund","type":"uint256","internalType":"uint256"}],"stateMutability":"pure"},{"type":"function","name":"deposit","inputs":[],"outputs":[],"stateMutability":"payable"},{"type":"function","name":"entryPoint","inputs":[],"outputs":[{"name":"","type":"address","internalType":"contract IEntryPoint"}],"stateMutability":"view"},{"type":"function","name":"getDeposit","inputs":[],"outputs":[{"name":"","type":"uint256","internalType":"uint256"}],"stateMutability":"view"},{"type":"function","name":"handleOps","inputs":[{"name":"ops","type":"tuple[]","internalType":"struct PackedUserOperation[]","components":[{"name":"sender","type":"address","internalType":"address"},{"name":"nonce","type":"uint256","internalType":"uint256"},{"name":"initCode","type":"bytes","internalType":"bytes"},{"name":"callData","type":"bytes","internalType":"bytes"},{"name":"accountGasLimits","type":"bytes32","internalType":"bytes32"},{"name":"preVerificationGas","type":"uint256","internalType":"uint256"},{"name":"gasFees","type":"bytes32","internalType":"bytes32"},{"name":"paymasterAndData","type":"bytes","internalType":"bytes"},{"name":"signature","type":"bytes","internalType":"bytes"}]}],"outputs":[],"stateMutability":"payable"},{"type":"function","name":"owner","inputs":[],"outputs":[{"name":"","type":"address","internalType":"address"}],"stateMutability":"view"},{"type":"function","name":"postOp","inputs":[{"name":"mode","type":"uint8","internalType":"enum IPaymaster.PostOpMode"},{"name":"context","type":"bytes","internalType":"bytes"},{"name":"actualGasCost","type":"uint256","internalType":"uint256"},{"name":"actualUserOpFeePerGas","type":"uint256","internalType":"uint256"}],"outputs":[],"stateMutability":"nonpayable"},{"type":"function","name":"renounceOwnership","inputs":[],"outputs":[],"stateMutability":"nonpayable"},{"type":"function","name":"simulateHandleOp","inputs":[{"name":"op","type":"tuple","internalType":"struct PackedUserOperation","components":[{"name":"sender","type":"address","internalType":"address"},{"name":"nonce","type":"uint256","internalType":"uint256"},{"name":"initCode","type":"bytes","internalType":"bytes"},{"name":"callData","type":"bytes","internalType":"bytes"},{"name":"accountGasLimits","type":"bytes32","internalType":"bytes32"},{"name":"preVerificationGas","type":"uint256","internalType":"uint256"},{"name":"gasFees","type":"bytes32","internalType":"bytes32"},{"name":"paymasterAndData","type":"bytes","internalType":"bytes"},{"name":"signature","type":"bytes","internalType":"bytes"}]},{"name":"target","type":"address","internalType":"address"},{"name":"callData","type":"bytes","internalType":"bytes"}],"outputs":[{"name":"","type":"tuple","internalType":"struct IEntryPointSimulations.ExecutionResult","components":[{"name":"preOpGas","type":"uint256","internalType":"uint256"},{"name":"paid","type":"uint256","internalType":"uint256"},{"name":"accountValidationData","type":"uint256","internalType":"uint256"},{"name":"paymasterValidationData","type":"uint256","internalType":"uint256"},{"name":"targetSuccess","type":"bool","internalType":"bool"},{"name":"targetResult","type":"bytes","internalType":"bytes"}]}],"stateMutability":"payable"},{"type":"function","name":"simulateValidation","inputs":[{"name":"op","type":"tuple","internalType":"struct PackedUserOperation","components":[{"name":"sender","type":"address","internalType":"address"},{"name":"nonce","type":"uint256","internalType":"uint256"},{"name":"initCode","type":"bytes","internalType":"bytes"},{"name":"callData","type":"bytes","internalType":"bytes"},{"name":"accountGasLimits","type":"bytes32","internalType":"bytes32"},{"name":"preVerificationGas","type":"uint256","internalType":"uint256"},{"name":"gasFees","type":"bytes32","internalType":"bytes32"},{"name":"paymasterAndData","type":"bytes","internalType":"bytes"},{"name":"signature","type":"bytes","internalType":"bytes"}]}],"outputs":[{"name":"","type":"tuple","internalType":"struct IEntryPointSimulations.ValidationResult","components":[{"name":"returnInfo","type":"tuple","internalType":"struct IEntryPoint.ReturnInfo","components":[{"name":"preOpGas","type":"uint256","internalType":"uint256"},{"name":"prefund","type":"uint256","internalType":"uint256"},{"name":"accountValidationData","type":"uint256","internalType":"uint256"},{"name":"paymasterValidationData","type":"uint256","internalType":"uint256"},{"name":"paymasterContext","type":"bytes","internalType":"bytes"}]},{"name":"senderInfo","type":"tuple","internalType":"struct IStakeManager.StakeInfo","components":[{"name":"stake","type":"uint256","internalType":"uint256"},{"name":"unstakeDelaySec","type":"uint256","internalType":"uint256"}]},{"name":"factoryInfo","type":"tuple","internalType":"struct IStakeManager.StakeInfo","components":[{"name":"stake","type":"uint256","internalType":"uint256"},{"name":"unstakeDelaySec","type":"uint256","internalType":"uint256"}]},{"name":"paymasterInfo","type":"tuple","internalType":"struct IStakeManager.StakeInfo","components":[{"name":"stake","type":"uint256","internalType":"uint256"},{"name":"unstakeDelaySec","type":"uint256","internalType":"uint256"}]},{"name":"aggregatorInfo","type":"tuple","internalType":"struct IEntryPoint.AggregatorStakeInfo","components":[{"name":"aggregator","type":"address","internalType":"address"},{"name":"stakeInfo","type":"tuple","internalType":"struct IStakeManager.StakeInfo","components":[{"name":"stake","type":"uint256","internalType":"uint256"},{"name":"unstakeDelaySec","type":"uint256","internalType":"uint256"}]}]}]}],"stateMutability":"payable"},{"type":"function","name":"transferOwnership","inputs":[{"name":"newOwner","type":"address","internalType":"address"}],"outputs":[],"stateMutability":"nonpayable"},{"type":"function","name":"unlockStake","inputs":[],"outputs":[],"stateMutability":"nonpayable"},{"type":"function","name":"validatePaymasterUserOp","inputs":[{"name":"userOp","type":"tuple","internalType":"struct PackedUserOperation","components":[{"name":"sender","type":"address","internalType":"address"},{"name":"nonce","type":"uint256","internalType":"uint256"},{"name":"initCode","type":"bytes","internalType":"bytes"},{"name":"callData","type":"bytes","internalType":"bytes"},{"name":"accountGasLimits","type":"bytes32","internalType":"bytes32"},{"name":"preVerificationGas","type":"uint256","internalType":"uint256"},{"name":"gasFees","type":"bytes32","internalType":"bytes32"},{"name":"paymasterAndData","type":"bytes","internalType":"bytes"},{"name":"signature","type":"bytes","internalType":"bytes"}]},{"name":"userOpHash","type":"bytes32","internalType":"bytes32"},{"name":"maxCost","type":"uint256","internalType":"uint256"}],"outputs":[{"name":"context","type":"bytes","internalType":"bytes"},{"name":"validationData","type":"uint256","internalType":"uint256"}],"stateMutability":"nonpayable"},{"type":"function","name":"withdrawStake","inputs":[{"name":"withdrawAddress","type":"address","internalType":"address payable"}],"outputs":[],"stateMutability":"nonpayable"},{"type":"function","name":"withdrawTo","inputs":[{"name":"withdrawAddress","type":"address","internalType":"address payable"},{"name":"amount","type":"uint256","internalType":"uint256"}],"outputs":[],"stateMutability":"nonpayable"},{"type":"event","name":"OwnershipTransferred","inputs":[{"name":"previousOwner","type":"address","indexed":true,"internalType":"address"},{"name":"newOwner","type":"address","indexed":true,"internalType":"address"}],"anonymous":false},{"type":"error","name":"EmptyMessageValue","inputs":[]},{"type":"error","name":"InsufficientBalance","inputs":[]},{"type":"error","name":"OwnableInvalidOwner","inputs":[{"name":"owner","type":"address","internalType":"address"}]},{"type":"error","name":"OwnableUnauthorizedAccount","inputs":[{"name":"account","type":"address","internalType":"address"}]},{"type":"error","name":"ReentrancyGuardReentrantCall","inputs":[]}],"bytecode":{"object":"0x60a0604052604051611de5380380611de58339810160408190526100229161017d565b80338061004957604051631e4fbdf760e01b81525f60048201526024015b60405180910390fd5b61005281610072565b5061005c816100c1565b6001600160a01b031660805250600180556101c9565b5f80546001600160a01b038381166001600160a01b0319831681178455604051919092169283917f8be0079c531659141344cd1fd0a4f28419497f9722a3daafe3b4186f6b6457e09190a35050565b6040516301ffc9a760e01b815263122a0e9b60e31b60048201526001600160a01b038216906301ffc9a790602401602060405180830381865afa15801561010a573d5f5f3e3d5ffd5b505050506040513d601f19601f8201168201806040525081019061012e91906101aa565b61017a5760405162461bcd60e51b815260206004820152601e60248201527f49456e747279506f696e7420696e74657266616365206d69736d6174636800006044820152606401610040565b50565b5f6020828403121561018d575f5ffd5b81516001600160a01b03811681146101a3575f5ffd5b9392505050565b5f602082840312156101ba575f5ffd5b815180151581146101a3575f5ffd5b608051611ba26102435f395f818161022d01528181610319015281816103ac0152818161049501528181610524015281816105a00152818161070101528181610806015281816108b401528181610937015281816109ea01528181610af101528181610be701528181610c920152610e910152611ba25ff3fe6080604052600436106100ef575f3560e01c806397b2dcb911610087578063c399ec8811610057578063c399ec8814610282578063c3bce00914610296578063d0e30db0146102b6578063f2fde38b146102be575f5ffd5b806397b2dcb9146101fc578063b0d691fe1461021c578063bb9fe6bf1461024f578063c23a5cea14610263575f5ffd5b806357956b58116100c257806357956b5814610186578063715018a6146101995780637c627b21146101ad5780638da5cb5b146101cc575f5ffd5b80630396cb60146100f3578063205c28781461010857806324a29b4f1461012757806352b7512c14610159575b5f5ffd5b610106610101366004611005565b6102dd565b005b348015610113575f5ffd5b50610106610122366004611034565b61037e565b348015610132575f5ffd5b5061014661014136600461105e565b6103ee565b6040519081526020015b60405180910390f35b348015610164575f5ffd5b506101786101733660046110a4565b61043e565b60405161015092919061111c565b61010661019436600461113d565b610460565b3480156101a4575f5ffd5b50610106610667565b3480156101b8575f5ffd5b506101066101c73660046111f3565b61067a565b3480156101d7575f5ffd5b505f546001600160a01b03165b6040516001600160a01b039091168152602001610150565b61020f61020a366004611268565b610696565b60405161015091906112e1565b348015610227575f5ffd5b506101e47f000000000000000000000000000000000000000000000000000000000000000081565b34801561025a575f5ffd5b506101066107fc565b34801561026e575f5ffd5b5061010661027d366004611337565b610874565b34801561028d575f5ffd5b50610146610907565b6102a96102a4366004611352565b6109ad565b6040516101509190611384565b610106610adc565b3480156102c9575f5ffd5b506101066102d8366004611337565b610b3c565b6102e5610b97565b6040517f0396cb6000000000000000000000000000000000000000000000000000000000815263ffffffff821660048201527f00000000000000000000000000000000000000000000000000000000000000006001600160a01b031690630396cb609034906024015f604051808303818588803b158015610364575f5ffd5b505af1158015610376573d5f5f3e3d5ffd5b505050505050565b610386610b97565b60405163040b850f60e31b81526001600160a01b038381166004830152602482018390527f0000000000000000000000000000000000000000000000000000000000000000169063205c2878906044015b5f604051808303815f87803b158015610364575f5ffd5b5f8060646103fc848261146a565b610406908661147d565b6104109190611494565b90505f61041d868861147d565b9050808210156104345761043182826114b3565b92505b5050949350505050565b60605f610449610bdc565b610454858585610c6e565b91509150935093915050565b345f036104805760405163cece0f1760e01b815260040160405180910390fd5b60405163b760faf960e01b81523060048201527f00000000000000000000000000000000000000000000000000000000000000006001600160a01b03169063b760faf99034906024015f604051808303818588803b1580156104e0575f5ffd5b505af11580156104f2573d5f5f3e3d5ffd5b50506040517f765e827f0000000000000000000000000000000000000000000000000000000081526001600160a01b037f000000000000000000000000000000000000000000000000000000000000000016935063765e827f92506105609150859085903390600401611605565b5f604051808303815f87803b158015610577575f5ffd5b505af1158015610589573d5f5f3e3d5ffd5b5050604051632943e70960e11b81523060048201527f00000000000000000000000000000000000000000000000000000000000000006001600160a01b0316925063205c2878915033908390635287ce129060240160a060405180830381865afa1580156105f9573d5f5f3e3d5ffd5b505050506040513d601f19601f8201168201806040525081019061061d919061171f565b5160405160e084901b7fffffffff000000000000000000000000000000000000000000000000000000001681526001600160a01b03909216600483015260248201526044016103d7565b61066f610b97565b6106785f610dbe565b565b610682610bdc565b61068f8585858585610e25565b5050505050565b6106cc6040518060c001604052805f81526020015f81526020015f81526020015f81526020015f15158152602001606081525090565b345f036106ec5760405163cece0f1760e01b815260040160405180910390fd5b60405163b760faf960e01b81523060048201527f0000000000000000000000000000000000000000000000000000000000000000906001600160a01b0382169063b760faf99034906024015f604051808303818588803b15801561074e575f5ffd5b505af1158015610760573d5f5f3e3d5ffd5b50506040517f97b2dcb90000000000000000000000000000000000000000000000000000000081526001600160a01b03851693506397b2dcb992506107b0915089908990899089906004016117aa565b5f604051808303815f875af11580156107cb573d5f5f3e3d5ffd5b505050506040513d5f823e601f3d908101601f191682016040526107f29190810190611874565b9695505050505050565b610804610b97565b7f00000000000000000000000000000000000000000000000000000000000000006001600160a01b031663bb9fe6bf6040518163ffffffff1660e01b81526004015f604051808303815f87803b15801561085c575f5ffd5b505af115801561086e573d5f5f3e3d5ffd5b50505050565b61087c610b97565b6040517fc23a5cea0000000000000000000000000000000000000000000000000000000081526001600160a01b0382811660048301527f0000000000000000000000000000000000000000000000000000000000000000169063c23a5cea906024015f604051808303815f87803b1580156108f5575f5ffd5b505af115801561068f573d5f5f3e3d5ffd5b6040517f70a082310000000000000000000000000000000000000000000000000000000081523060048201525f907f00000000000000000000000000000000000000000000000000000000000000006001600160a01b0316906370a0823190602401602060405180830381865afa158015610984573d5f5f3e3d5ffd5b505050506040513d601f19601f820116820180604052508101906109a89190611919565b905090565b6109b5610f14565b345f036109d55760405163cece0f1760e01b815260040160405180910390fd5b60405163b760faf960e01b81523060048201527f0000000000000000000000000000000000000000000000000000000000000000906001600160a01b0382169063b760faf99034906024015f604051808303818588803b158015610a37575f5ffd5b505af1158015610a49573d5f5f3e3d5ffd5b50506040517fc3bce0090000000000000000000000000000000000000000000000000000000081526001600160a01b038516935063c3bce0099250610a9391508690600401611930565b5f604051808303815f875af1158015610aae573d5f5f3e3d5ffd5b505050506040513d5f823e601f3d908101601f19168201604052610ad591908101906119b0565b9392505050565b60405163b760faf960e01b81523060048201527f00000000000000000000000000000000000000000000000000000000000000006001600160a01b03169063b760faf99034906024015f604051808303818588803b1580156108f5575f5ffd5b610b44610b97565b6001600160a01b038116610b8b576040517f1e4fbdf70000000000000000000000000000000000000000000000000000000081525f60048201526024015b60405180910390fd5b610b9481610dbe565b50565b5f546001600160a01b03163314610678576040517f118cdaa7000000000000000000000000000000000000000000000000000000008152336004820152602401610b82565b336001600160a01b037f00000000000000000000000000000000000000000000000000000000000000001614610678576040517f08c379a000000000000000000000000000000000000000000000000000000000815260206004820152601560248201527f53656e646572206e6f7420456e747279506f696e7400000000000000000000006044820152606401610b82565b604051632943e70960e11b81523060048201526060905f9083906001600160a01b037f00000000000000000000000000000000000000000000000000000000000000001690635287ce129060240160a060405180830381865afa158015610cd7573d5f5f3e3d5ffd5b505050506040513d601f19601f82011682018060405250810190610cfb919061171f565b511015610d34576040517ff4d678b800000000000000000000000000000000000000000000000000000000815260040160405180910390fd5b5f80610d4360e0880188611abf565b610d51916034908290611b02565b810190610d5e9190611b29565b9092509050610d706020880188611337565b610d7988610ef5565b604080516001600160a01b039093166020840152820152606081018390526080810182905260a00160408051601f19818403018152919052975f975095505050505050565b5f80546001600160a01b038381167fffffffffffffffffffffffff0000000000000000000000000000000000000000831681178455604051919092169283917f8be0079c531659141344cd1fd0a4f28419497f9722a3daafe3b4186f6b6457e09190a35050565b6002856002811115610e3957610e39611b49565b1461068f575f808080610e4e87890189611b5d565b93509350935093505f610e63838589856103ee565b90508015610ee95760405163040b850f60e31b81526001600160a01b038681166004830152602482018390527f0000000000000000000000000000000000000000000000000000000000000000169063205c2878906044015f604051808303815f87803b158015610ed2575f5ffd5b505af1158015610ee4573d5f5f3e3d5ffd5b505050505b50505050505050505050565b5f6fffffffffffffffffffffffffffffffff60c0830135165b92915050565b6040518060a00160405280610f4d6040518060a001604052805f81526020015f81526020015f81526020015f8152602001606081525090565b8152602001610f6d60405180604001604052805f81526020015f81525090565b8152602001610f8d60405180604001604052805f81526020015f81525090565b8152602001610fad60405180604001604052805f81526020015f81525090565b8152602001610fba610fbf565b905290565b60405180604001604052805f6001600160a01b03168152602001610fba60405180604001604052805f81526020015f81525090565b63ffffffff81168114610b94575f5ffd5b5f60208284031215611015575f5ffd5b8135610ad581610ff4565b6001600160a01b0381168114610b94575f5ffd5b5f5f60408385031215611045575f5ffd5b823561105081611020565b946020939093013593505050565b5f5f5f5f60808587031215611071575f5ffd5b5050823594602084013594506040840135936060013592509050565b5f610120828403121561109e575f5ffd5b50919050565b5f5f5f606084860312156110b6575f5ffd5b833567ffffffffffffffff8111156110cc575f5ffd5b6110d88682870161108d565b9660208601359650604090950135949350505050565b5f81518084528060208401602086015e5f602082860101526020601f19601f83011685010191505092915050565b604081525f61112e60408301856110ee565b90508260208301529392505050565b5f5f6020838503121561114e575f5ffd5b823567ffffffffffffffff811115611164575f5ffd5b8301601f81018513611174575f5ffd5b803567ffffffffffffffff81111561118a575f5ffd5b8560208260051b840101111561119e575f5ffd5b6020919091019590945092505050565b5f5f83601f8401126111be575f5ffd5b50813567ffffffffffffffff8111156111d5575f5ffd5b6020830191508360208285010111156111ec575f5ffd5b9250929050565b5f5f5f5f5f60808688031215611207575f5ffd5b853560038110611215575f5ffd5b9450602086013567ffffffffffffffff811115611230575f5ffd5b61123c888289016111ae565b9699909850959660408101359660609091013595509350505050565b803561126381611020565b919050565b5f5f5f5f6060858703121561127b575f5ffd5b843567ffffffffffffffff811115611291575f5ffd5b61129d8782880161108d565b94505060208501356112ae81611020565b9250604085013567ffffffffffffffff8111156112c9575f5ffd5b6112d5878288016111ae565b95989497509550505050565b60208152815160208201526020820151604082015260408201516060820152606082015160808201526080820151151560a08201525f60a083015160c08084015261132f60e08401826110ee565b949350505050565b5f60208284031215611347575f5ffd5b8135610ad581611020565b5f60208284031215611362575f5ffd5b813567ffffffffffffffff811115611378575f5ffd5b61132f8482850161108d565b602080825282516101408383015280516101608401529081015161018083015260408101516101a083015260608101516101c08301526080015160a06101e08301525f906113d66102008401826110ee565b905060208401516113f4604085018280518252602090810151910152565b506040840151805160808581019190915260209182015160a08601526060860151805160c087015282015160e086015285015180516001600160a01b031661010086015280820151805161012087015290910151610140850152509392505050565b634e487b7160e01b5f52601160045260245ffd5b80820180821115610f0e57610f0e611456565b8082028115828204841417610f0e57610f0e611456565b5f826114ae57634e487b7160e01b5f52601260045260245ffd5b500490565b81810381811115610f0e57610f0e611456565b5f5f8335601e198436030181126114db575f5ffd5b830160208101925035905067ffffffffffffffff8111156114fa575f5ffd5b8036038213156111ec575f5ffd5b81835281816020850137505f828201602090810191909152601f909101601f19169091010190565b61154a8261153d83611258565b6001600160a01b03169052565b602081810135908301525f61156260408301836114c6565b610120604086015261157961012086018284611508565b91505061158960608401846114c6565b858303606087015261159c838284611508565b6080868101359088015260a0808701359088015260c0808701359088015292506115cc91505060e08401846114c6565b85830360e08701526115df838284611508565b925050506115f16101008401846114c6565b8583036101008701526107f2838284611508565b604080825281018390525f6060600585901b83018101908301868361011e1936839003015b8882101561166e57868503605f190184528235818112611648575f5ffd5b611654868c8301611530565b95505060208301925060208401935060018201915061162a565b50505050809150506001600160a01b0383166020830152949350505050565b634e487b7160e01b5f52604160045260245ffd5b60405160a0810167ffffffffffffffff811182821017156116c4576116c461168d565b60405290565b60405160c0810167ffffffffffffffff811182821017156116c4576116c461168d565b6040805190810167ffffffffffffffff811182821017156116c4576116c461168d565b80518015158114611263575f5ffd5b5f60a0828403128015611730575f5ffd5b506117396116a1565b8251815261174960208401611710565b602082015260408301516dffffffffffffffffffffffffffff8116811461176e575f5ffd5b6040820152606083015161178181610ff4565b6060820152608083015165ffffffffffff8116811461179e575f5ffd5b60808201529392505050565b606081525f6117bc6060830187611530565b6001600160a01b038616602084015282810360408401526117de818587611508565b979650505050505050565b5f82601f8301126117f8575f5ffd5b815167ffffffffffffffff8111156118125761181261168d565b604051601f8201601f19908116603f0116810167ffffffffffffffff811182821017156118415761184161168d565b604052818152838201602001851015611858575f5ffd5b8160208501602083015e5f918101602001919091529392505050565b5f60208284031215611884575f5ffd5b815167ffffffffffffffff81111561189a575f5ffd5b820160c081850312156118ab575f5ffd5b6118b36116ca565b815181526020808301519082015260408083015190820152606080830151908201526118e160808301611710565b608082015260a082015167ffffffffffffffff8111156118ff575f5ffd5b61190b868285016117e9565b60a083015250949350505050565b5f60208284031215611929575f5ffd5b5051919050565b602081525f610ad56020830184611530565b5f60408284031215611952575f5ffd5b61195a6116ed565b825181526020928301519281019290925250919050565b5f60608284031215611981575f5ffd5b6119896116ed565b9050815161199681611020565b81526119a58360208401611942565b602082015292915050565b5f602082840312156119c0575f5ffd5b815167ffffffffffffffff8111156119d6575f5ffd5b820161014081850312156119e8575f5ffd5b6119f06116a1565b815167ffffffffffffffff811115611a06575f5ffd5b820160a08187031215611a17575f5ffd5b611a1f6116a1565b81518152602080830151908201526040808301519082015260608083015190820152608082015167ffffffffffffffff811115611a5a575f5ffd5b611a66888285016117e9565b608083015250825250611a7c8560208401611942565b6020820152611a8e8560608401611942565b6040820152611aa08560a08401611942565b6060820152611ab28560e08401611971565b6080820152949350505050565b5f5f8335601e19843603018112611ad4575f5ffd5b83018035915067ffffffffffffffff821115611aee575f5ffd5b6020019150368190038213156111ec575f5ffd5b5f5f85851115611b10575f5ffd5b83861115611b1c575f5ffd5b5050820193919092039150565b5f5f60408385031215611b3a575f5ffd5b50508035926020909101359150565b634e487b7160e01b5f52602160045260245ffd5b5f5f5f5f60808587031215611b70575f5ffd5b8435611b7b81611020565b96602086013596506040860135956060013594509250505056fea164736f6c634300081b000a","linkReferences":{}},"methodIdentifiers":{"addStake(uint32)":"0396cb60","calculateRefund(uint256,uint256,uint256,uint256)":"24a29b4f","deposit()":"d0e30db0","entryPoint()":"b0d691fe","getDeposit()":"c399ec88","handleOps((address,uint256,bytes,bytes,bytes32,uint256,bytes32,bytes,bytes)[])":"57956b58","owner()":"8da5cb5b","postOp(uint8,bytes,uint256,uint256)":"7c627b21","renounceOwnership()":"715018a6","simulateHandleOp((address,uint256,bytes,bytes,bytes32,uint256,bytes32,bytes,bytes),address,bytes)":"97b2dcb9","simulateValidation((address,uint256,bytes,bytes,bytes32,uint256,bytes32,bytes,bytes))":"c3bce009","transferOwnership(address)":"f2fde38b","unlockStake()":"bb9fe6bf","validatePaymasterUserOp((address,uint256,bytes,bytes,bytes32,uint256,bytes32,bytes,bytes),bytes32,uint256)":"52b7512c","withdrawStake(address)":"c23a5cea","withdrawTo(address,uint256)":"205c2878"},"id":0}