{"abi":[{"type":"fallback","stateMutability":"payable"},{"type":"receive","stateMutability":"payable"},{"type":"function","name":"forward","inputs":[{"name":"destination","type":"address","internalType":"address"}],"outputs":[],"stateMutability":"payable"},{"type":"error","name":"ForwardFailed","inputs":[]},{"type":"error","name":"UseForwardFunction","inputs":[]},{"type":"error","name":"ZeroAddress","inputs":[]}],"bytecode":{"object":"0x608060405234601c57600e6020565b61027961002b823961027990f35b6026565b60405190565b5f80fdfe60806040526004361015610018575b36610221576101ff565b6100225f35610031565b63101e89520361000e5761009e565b60e01c90565b60405190565b5f80fd5b60018060a01b031690565b61005590610041565b90565b6100618161004c565b0361006857565b5f80fd5b9050359061007982610058565b565b9060208282031261009457610091915f0161006c565b90565b61003d565b5f0190565b6100b16100ac36600461007b565b6100fe565b6100b9610037565b806100c381610099565b0390f35b90565b90565b6100e16100dc6100e6926100c7565b6100ca565b610041565b90565b6100f2906100cd565b90565b5f90565b151590565b8061011961011361010e5f6100e9565b61004c565b9161004c565b1461015b575f8080806101399461012e6100f5565b5034905af1156100f9565b61013f57565b5f63096dc0e160e01b81528061015760048201610099565b0390fd5b5f63d92e233d60e01b81528061017360048201610099565b0390fd5b60209181520190565b60207f7468657200000000000000000000000000000000000000000000000000000000917f55736520666f727761726428292066756e6374696f6e20746f2073656e6420455f8201520152565b6101da6024604092610177565b6101e381610180565b0190565b6101fc9060208101905f8183039101526101cd565b90565b610207610037565b62461bcd60e51b81528061021d600482016101e7565b0390fd5b610229610037565b62461bcd60e51b81528061023f600482016101e7565b0390fdfea2646970667358221220b25b4e95efe6a75bd2a8394e6d97f8f9fd49ec8e2a76d41869736eb9b7d611b364736f6c634300081b0033","linkReferences":{}},"methodIdentifiers":{"forward(address)":"101e8952"},"id":2}