{"abi":[{"type":"fallback","stateMutability":"payable"},{"type":"receive","stateMutability":"payable"},{"type":"function","name":"forward","inputs":[{"name":"destination","type":"address","internalType":"address"}],"outputs":[],"stateMutability":"payable"},{"type":"error","name":"ForwardFailed","inputs":[]},{"type":"error","name":"UseForwardFunction","inputs":[]},{"type":"error","name":"ZeroAddress","inputs":[]}],"bytecode":{"object":"0x6080604052348015600e575f5ffd5b506101c28061001c5f395ff3fe608060405260043610610021575f3560e01c8063101e8952146100d35761007f565b3661007f5760405162461bcd60e51b8152602060048201526024808201527f55736520666f727761726428292066756e6374696f6e20746f2073656e6420456044820152633a3432b960e11b60648201526084015b60405180910390fd5b60405162461bcd60e51b8152602060048201526024808201527f55736520666f727761726428292066756e6374696f6e20746f2073656e6420456044820152633a3432b960e11b6064820152608401610076565b6100e66100e136600461017b565b6100e8565b005b73ffffffffffffffffffffffffffffffffffffffff8116610135576040517fd92e233d00000000000000000000000000000000000000000000000000000000815260040160405180910390fd5b5f5f5f5f5f34865af1905080610177576040517f096dc0e100000000000000000000000000000000000000000000000000000000815260040160405180910390fd5b5050565b5f6020828403121561018b575f5ffd5b813573ffffffffffffffffffffffffffffffffffffffff811681146101ae575f5ffd5b939250505056fea164736f6c634300081b000a","linkReferences":{}},"methodIdentifiers":{"forward(address)":"101e8952"},"id":1}